:020000040800F2
:100000001805002049010008A7110008F50A00089A
:10001000A511000865040008252100080000000063
:10002000000000000000000000000000B114000803
:1000300019060008000000002112000885160008BB
:100040006301000863010008630100086301000800
:1000500063010008630100086301000863010008F0
:1000600063010008630100086301000863010008E0
:1000700063010008630100086301000863010008D0
:1000800063010008630100086301000863010008C0
:100090006301000863010008630100081D060008F1
:1000A00063010008630100086301000863010008A0
:1000B0006301000863010008630100086301000890
:1000C0006301000863010008630100086301000880
:1000D000630100089D1E0008630100086301000819
:1000E0006301000863010008630100086301000860
:1000F0006301000863010008630100086301000850
:10010000630100086301000863010008630100083F
:10011000630100086301000863010008630100082F
:10012000630100086301000863010008630100081F
:10013000DFF810D000F05CF800480047B524000854
:10014000AFF30080180500200648804706480047A6
:10015000FEE7FEE7FEE7FEE7FEE7FEE7FEE7FEE777
:10016000FEE7FEE7B5160008310100082DE9F05F53
:100170000546002092469B46884606468146402416
:100180001BE0284641464746224600F020F85346E9
:100190005A46C01A914110D311461846224600F023
:1001A00039F82D1A67EB01084F462246012000213D
:1001B00000F030F817EB00094E41201EA4F10104B5
:1001C000DFDC484631462A464346BDE8F09F202AF8
:1001D00004DB203A21FA02F00021704721FA02F3F1
:1001E000D040C2F1200291400843194670470000F8
:1001F000064C074D06E0E06840F0010394E8070074
:1002000098471034AC42F6D3FFF796FF88480608AB
:10021000A8480608202A04DB203A00FA02F1002050
:1002200070479140C2F1200320FA03F31943904034
:100230007047002904D0816841F001018160704756
:10024000816821F0010181607047000010B51549F7
:1002500088420AD144150121204601F00DF82046BC
:10026000BDE81040002101F007B80F4988420AD1CB
:1002700004150121204600F0FFFF2046BDE8104094
:10028000002100F0F9BF094988420AD10121CC03BD
:10029000204600F0F1FF2046BDE81040002100F0AC
:1002A000EBBF10BD0024014000280140003C01408C
:1002B000014600208968490700D501207047C06CBD
:1002C00080B270470246002012680A4200D0012026
:1002D0007047014600208968090700D50120704752
:1002E00010B542680E4B1A400C790B6842EA0422A2
:1002F0001343436082680B4B1A40D1E90243234306
:100300004C7942EA440213438360C26A22F47002C9
:10031000097C491EC9B242EA0151C16210BD000008
:10032000FFFEF0FFFDF7F1FF70B5072609290AD996
:10033000C568A1F10A0404EB4404A640B543A340F8
:100340001D43C56007E0056901EB4104A640B543C4
:10035000A3401D4305611F23072A09D2446B521E87
:1003600002EB820293409C4391400C43446370BD76
:100370000D2A09D2046BD21F02EB820293409C43E8
:1003800091400C43046370BDC46A0D3A02EB8202D3
:1003900093409C4391400C43C46270BD816841F01E
:1003A000080181607047002904D0816841F4A001F0
:1003B00081607047816821F4A00181607047816885
:1003C00041F004018160704738B50121082000F038
:1003D00045FF4FF48074ADF8004010208DF8030005
:1003E00003208DF80200054D6946284600F082FA88
:1003F0002146284600F007FB38BD0000000C0140F4
:1004000010B5482001F040F94FF4A06000F0FEFE66
:1004100000F0DCFD47214FF4FA7001F03DFB0F497D
:10042000887828B10889193880B2088150B10BE06A
:100430000889193080B20881B0F5967F04D1012077
:10044000887001E0002088700989054801F072FC7D
:10045000BDE810400A2001F0E7BF000000000020C6
:1004600000040040FEE7000070B5002400F024F80E
:10047000104D04E0641CE4B2012001F0EFFFD5F858
:100480002C0108B1642CF5D3642C01D3012070BD7C
:10049000002404E0641CE4B2012001F0DFFFD5F881
:1004A0002C0108B9642CF5D3642C01D3012070BD54
:1004B000002070BD0000244208B54FF40060ADF884
:1004C000000048208DF803006946024800F012FA47
:1004D00008BD00000020014008B54FF40060ADF8F1
:1004E000000010208DF8030003208DF802006946FB
:1004F000014800F0FFF908BD0020014038B5012196
:10050000080200F0ABFE4FF40064ADF8004010208C
:100510008DF8030003208DF80200074D6946284638
:1005200000F0E8F92146284600F06FFA00F062F882
:10053000FFF79AFF38BD00000020014070B500248D
:10054000104D04E0641CE4B2012001F087FFD5F8EF
:100550002C0108B1642CF5D3002404E0641CE4B23F
:10056000012001F07BFFD5F82C0108B9642CF5D3EC
:10057000282001F073FFD5F82C0108B1012070BDCF
:10058000002070BD0000244270B500200024400609
:10059000050EFFF7D3FF2843641CE4B2082CF6D302
:1005A00070BD2DE9FC4106460F4600F023F8FFF729
:1005B0005BFF10B10120BDE8FC8100246D46FFF710
:1005C000E3FF2855641CE4B2052CF8D39DF8001015
:1005D0009DF801009DF803300A189DF802000344BD
:1005E0001A449DF804309A4201D1397030700020CD
:1005F000E1E7000010B5FFF76FFF064C0020206018
:10060000142001F011FF01202060BDE810401E20E1
:1006100001F024BFAC012442704700002DE9F047EF
:1006200000260024DFF86090184F4FF40078414610
:10063000484600F0E1F90128F9D100F041FAFA2822
:1006400019D2A0F1C801322901D2012609E0A0F196
:100650003C011E2901D2012503E00A38282800D2D6
:100660000025012E0CD17868400028447860202CA9
:1006700006D3012038704046BDE8F04700F008B8C6
:10068000641CE4B2D3E70000000C014034000020F9
:1006900001490860704700001404014030B51B4A4E
:1006A00083790168002B2AD013688B431360111DD6
:1006B0000B680468A3430B60017911440B6804685C
:1006C00023430B60114C083421680368994321606F
:1006D000231D19680568A94319604179102905D0BF
:1006E00011440A68006802430A6030BD216802684C
:1006F00011432160196800680143196030BD007919
:10070000104402688A43026030BD000000040140CA
:100710008000A0F1C040002904D0016841F001012F
:10072000016070470168024A114001607047000093
:10073000FEFF0F0010B5D0E901121143D0E90323E9
:100740001A4311434269114382691143C26911433B
:10075000026A1143426A1143826A1143C26A114319
:10076000026B114302689200A2F1C04211608168DD
:10077000082907D101688900A1F1C0410A6842F047
:1007800040020A60416BD1E9002342EA03128B6800
:100790008C891B0243EA04431A430B8A42EA035240
:1007A0000B7D896942EA03620A430168491C89009A
:1007B000A1F1C0410A60C16AB1F5804F08D000685C
:1007C0006FF070418000A0F1C040C0F8041110BD6E
:1007D000816BD1E9002342EA03128B680C8A1B0269
:1007E00043EA04531A430B7D896942EA03620068B5
:1007F0000A438000A0F1C040C0F8042110BD0000F1
:1008000038B54FF40041164800F0F6F8154D4FF496
:100810000054012809D02146284600F0F4F8BDE82C
:1008200038404FF4FA7001F0FFBD0F4A012010600C
:100830004FF6FF7000F044FA0C48962300901A46D9
:1008400019465A2000F04AFB00F07AFD214628465E
:1008500000F0DBF8BDE838400A2001F0E5BD0000FB
:100860000008014000100140A0812142DC25000861
:10087000F8B50121102000F0F1FC4FF40054ADF860
:10088000004010208DF8030003258DF802500D4E16
:100890006946304600F02EF82146304600F0B5F8A3
:1008A0000121042000F0DAFCA000ADF800002820AF
:1008B0008DF803008DF802506946034800F01AF8DD
:1008C000F8BD0000001001400008014010B58A0783
:1008D000120F0F23934021F00304054921448C6833
:1008E0009C438C608B68904003438B6010BD00007C
:1008F000000001402DE9F0410022CC7804F00F0304
:10090000E40601D58C7823430C784FF00F0714F0E0
:10091000FF0F4FF0010C1CD005680CFA02F40E8892
:100920002640A64211D1960007FA06F825EA0805E6
:1009300003FA06F848EA0505CE78282E02D0482E9C
:1009400002D002E0446100E00461521C082AE4D3B2
:1009500005600A88FF2A1ED94568002202F10806B0
:100960000CFA06F40E882640A64210D1960007FA2B
:1009700006F825EA080503FA06F848EA0505CE78E0
:10098000282E00D14461CE78482E00D10461521C3B
:10099000082AE3D34560BDE8F0810000F0B5154CAE
:1009A000002801DAE36900E06368C0F30346420D02
:1009B000120185B2C0F301579540032F07D0C20240
:1009C0000CD50322B240934343F0706209E023F058
:1009D0007062636823F07063636002E0AB4343F0CE
:1009E000706201B12A43002801DAE261F0BD626061
:1009F000F0BD0000000001400246002092680A425B
:100A000000D00120704741617047016170470000CC
:100A100010B50B4C0146072301222046FFF784FC4A
:100A200001212046FFF7BFFC02212046FFF74AFCC8
:100A30000028F9D02046BDE81040FFF740BC000078
:100A4000003C0140154816494068884201D1012008
:100A500070471449884201D10220704712498842E8
:100A600001D1032070471149884201D10420704709
:100A70000F49884201D1052070470E49884201D1B3
:100A8000062070470C49884201D1072070470B4966
:100A9000884201D1082070470020704734000020B0
:100AA0005DA2FF009768FF00CF30FF009D62FF004E
:100AB000EF10FF00C738FF00A55AFF00857AFF003E
:100AC00070B500244FF40075094E08E0641CE4B2D0
:100AD000142001F0C3FCFA2C01D3204670BD294636
:100AE0003046FFF789FF0128F0D0204670BD000096
:100AF000000C0140FEE7000038B53E4801780129AE
:100B000076D100240470FFF79DFF01281ED0FFF767
:100B100099FF02281FD0FFF795FF032824D0FFF785
:100B200091FF042829D0FFF78DFF4FF6FF750528A8
:100B300027D0FFF787FF062832D0FFF783FF07286B
:100B40003ED0FFF77FFF08284AD04FE02AA001F0EF
:100B5000EBFA012038BD2AA001F0E6FA02220121B9
:100B6000402001F00BFD41E027A001F0DDFA022258
:100B70000021402001F002FD38E025A001F0D4FA68
:100B800034E025A001F0D0FA284600F099F8254875
:100B90000090A023F022B421282000F09FF925E046
:100BA00021A001F0C1FA284600F08AF8214840F25D
:100BB000171300901A1FAA21142000F08FF915E0D6
:100BC0001DA001F0B1FA284600F07AF81D48009007
:100BD00040F21913D522AA21322000F07FF905E056
:100BE00019A001F0A1FA284600F06AF8194804603B
:100BF000002038BD34000020B5E7D4B4200A00003E
:100C0000B0B4BCFC20300A00B0B4BCFC20310A00F7
:100C10006D6F6465200A0000B0B4BCFC2034200A6B
:100C200000000000A4D50008B0B4BCFC2035200AA8
:100C300000000000C4FF0108B0B4BCFC2036200A4C
:100C4000000000002E570408B0B4BCFC2033200A7A
:100C500000000000380000207FB50121092000F0CD
:100C6000FDFA4FF40074ADF80C4048218DF80F10D8
:100C700003A91248FFF73EFE09210120FFF726FED7
:100C80002046FFF705FD019400258DF808500C2043
:100C90008DF8090001248DF80A4001A8FFF7FEFC39
:100CA00017208DF800008DF801508DF802408DF866
:100CB0000340684600F078FA7FBD0000000C014058
:100CC00030B505460E4C00216088401E83B2208856
:100CD000401E82B2084600F06BF800230BE00022B1
:100CE00004E0284600F06CF9521C92B260889042F1
:100CF000F7D85B1C9BB220889842F0D830BD00002A
:100D00002C00002010B50D4A90714FF4F0734FF491
:100D1000A074002808D0362000F046F9602000F0CA
:100D200049F95480138010BD362000F03DF90020B1
:100D300000F040F95380148010BD00002C0000200A
:100D400010B514460B46024600F032F82046BDE8C6
:100D5000104000F035B900000148008870470000DD
:100D60000008006C00B5114A1388834202D95288EA
:100D70008A4201D8002000BD0B46024600F018F858
:100D80002E2000F011F9FFF7E7FFFFF7E5FF01461E
:100D9000FFF7E2FF0246FFF7DFFF6FF30A01800A69
:100DA00041EA401040EAD22000BD00002C000020A3
:100DB00030B504460D462A2000F0F6F8200A00F06F
:100DC000F9F8E0B200F0F6F8100A00F0F3F8D0B24B
:100DD00000F0F0F82B2000F0E7F8280A00F0EAF81D
:100DE000E8B200F0E7F8180A00F0E4F8D8B200F032
:100DF000E1F8BDE830402C2000F0D6B82DE9F84FDE
:100E000082460C461F46A346780701D0012000E029
:100E1000002000EBD70079084843C0B20090203A88
:100E200002F0FF0900264BE00C2F14D0102F19D030
:100E3000182F48D1254909EBC90001EB8000855DD9
:100E40004FF00008280612D5214821460288504656
:100E5000FFF776FF13E01F4909EB490001EB800023
:100E6000855DEDE71C4800EB0910855DE8E70A9811
:100E700028B91748214642885046FFF761FF6806A7
:100E8000050E641CA4B21248001D4088A0421AD965
:100E9000A4EB0B00B8420AD15C460AF1010A1FFA22
:100EA0008AFA0B48001D008850450CD906E008F16D
:100EB000010808F0FF08B8F1080FC3D3761CF6B29A
:100EC00000988642B0D3BDE8F88F00002C350608A4
:100ED00028000020C82A06083C2F06082DE9FF4FED
:100EE00081B083460E9F90469A46002500200090D0
:100EF000029802995044401E83B20BEB0800401E3A
:100F000082B25846FFF754FF08FB0AF040000090F9
:100F100000261AE00024029800EB060911E0781977
:100F200040784FF6FF7101EA00207A5D02430BEB37
:100F300004001FFA89F180B2FFF702FFAD1C641CA8
:100F4000A4B24445EBD3761CB6B25645E2D305B005
:100F5000BDE8F08F2DE9F84F0446DDE90A760D462D
:100F600004F0FF0810191FFA80F958191FFA80FAC7
:100F70004FF0000B11E04C4502D34446E81985B20E
:100F800055450FD23B4629462046CDF800B0FFF725
:100F900035FF04EB570084B2761C3278A2F12000B2
:100FA0005E28E8D9BDE8F88F014908807047000045
:100FB000FE07006C01490880704700000008006CC3
:100FC00001490880704700000008006C38B5012115
:100FD000482000F043F92024ADF8004010208DF89F
:100FE000030003208DF802000A4D69462846FFF7EA
:100FF00081FC20212846FFF708FDADF80040064C93
:1010000069462046FFF776FC20212046FFF7FDFCCD
:1010100038BD0000000C01400018014001464FF0AF
:10102000804000F089BE01464FF0804000F082BE53
:1010300070B50C46154600F008F82046FFF7F3FFA0
:101040002846BDE87040FFF7E9BF01464FF08040F9
:1010500000F06EBE2DE9FC4100F03AF8164E7070BB
:101060000A21B0FBF1F206F1100530322A70B0FB14
:10107000F1F201FB12003030687010A01827CDE9A2
:101080000070124C084663882288FFF763FFCDE9A1
:101090000075638822880A21A020FFF75BFF707823
:1010A0000A2807D202B00222BDE8F0410021402008
:1010B00001F064BABDE8FC81000000204C6967685B
:1010C000742053656E73653A200000002C000020E8
:1010D00070B5002500240620FFF79AFC0544052082
:1010E00001F0A2F9641CE4B20A2CF4D30A20B5FB87
:1010F000F0F04FF47A61884200D908462821B0FB0D
:10110000F1F0C0F16400C0B270BD000030B587B02E
:101110000121802000F0A2F80121CC03204600F03C
:101120009DF80121204600F0A7F80021204600F09C
:10113000A3F8E011ADF8180000248DF81B4006A9B3
:101140001648FFF7D7FB164D2846FFF77FF80194A6
:101150008DF808408DF809404FF460210391049404
:1011600001218DF8141001A92846FFF7B9F80121D3
:101170002846FFF75EF82846FFF710F92846FFF7E4
:10118000A8F80028FAD12846FFF719F92846FFF7F2
:101190008FF80028FAD107B030BD0000001C0140D4
:1011A000003C0140FEE7704770B50F23C27801266E
:1011B0000178002A1ED0144A126802F4E062C2F5D7
:1011C000E062120AC2F10404D3404578A540827857
:1011D0001A402A43120101F1E02181F8002400782D
:1011E00000F01F018E404009800000F1E020C0F8AF
:1011F000006170BD01F01F0086404809800000F1C9
:10120000E020C0F8806170BD0CED00E002490843A9
:1012100002490860704700000000FA050CED00E08C
:1012200070470000054A002903D05169014351610C
:1012300070475169814351617047000000100240BE
:10124000054A002903D0D1690143D1617047D169B2
:101250008143D1617047000000100240054A002917
:1012600003D0916901439161704791698143916114
:101270007047000000100240054A002903D0D168E1
:101280000143D1607047D1688143D160704700004D
:101290000010024010B5264A516801F00C01254BA0
:1012A000002927D0042927D0082927D003605168B6
:1012B00001F0F0010909204B5C5C0168E1404160EC
:1012C000546804F4E064240A1C5D21FA04F4846088
:1012D000546804F46054E40A1B5DD940C16052684C
:1012E00002F44042920B144B1B1F9A5CB1FBF2F1CB
:1012F000016110BD0360DAE70360D8E7516801F4CB
:101300007011536803F48033022404EB914133B12C
:1013100053689B0307D5094B59430160C7E7074B47
:1013200059430160C3E7034B59430160BFE7000025
:101330000010024000127A001700002000093D0052
:1013400008B500221146FF20FFF772FE642001F06D
:101350006BF80022FF211046FFF76AFE642001F0BF
:1013600063F80021FF220846FFF762FE642001F0C7
:101370005BF8FF2100220846FFF75AFE642001F0C7
:1013800053F8FF2211460020FFF752FE642001F0BF
:101390004BF8FF2200211046FFF74AFE642001F0BF
:1013A00043F8002211461046FFF742FE642001F088
:1013B0003BF8FFF7A1FB0028C3D00B4900200860D1
:1013C0004FF6FF70FFF77CFC084840F217130090BF
:1013D0001A1FAA211420FFF781FD0022BDE8084052
:1013E00011461046FFF724BEA0812142C4FF010828
:1013F000F0B589B001210846FFF722FF0121042042
:10140000FFF72CFF18208DF823000720ADF82000EF
:1014100003208DF8220008A92448FFF76BFA4FF04B
:101420008047384600F0A0FB0024ADF80A40ADF834
:101430000640FE20ADF8080040F21910ADF8040097
:101440008DF80C4001A9384600F078FC04A800F0A3
:1014500065FC6025ADF81050ADF818400126ADF8D8
:101460001260ADF8164004A9384600F083FBADF8D1
:101470001050ADF81840ADF81260ADF8164004A950
:10148000384600F0BBFBADF81050ADF81840ADF891
:101490001260ADF8164004A9384600F0FDFB0121AA
:1014A000384600F055FB09B0F0BD000000080140CF
:1014B0007047000010B5334C032819D0062829D0F6
:1014C000092839D00C2849D0002859D102212046BA
:1014D000FFF799FA04212046FFF795FA08212046E4
:1014E000FFF791FA2046BDE810401021FFF78BBAB4
:1014F00002212046FFF789FA04212046FFF785FAEA
:1015000008212046FFF77FFA2046BDE81040102151
:10151000FFF779BA02212046FFF775FA0421204629
:10152000FFF773FA08212046FFF76FFA2046BDE85F
:1015300010401021FFF767BA02212046FFF765FA35
:1015400004212046FFF75FFA08212046FFF75BFAE7
:101550002046BDE810401021FFF757BA022120466F
:10156000FFF751FA04212046FFF74DFA08212046E3
:10157000FFF74BFA2046BDE810401021FFF745BAAF
:1015800010BD0000001C0140AFF300800CB500222C
:10159000019200922748016841F4803101604FF4C4
:1015A000A063016801F4003100910199491C019187
:1015B000009911B901999942F3D10168890302D5C3
:1015C0000121009100E000920099012930D11A49CF
:1015D0000A6842F010020A600A6822F003020A60F8
:1015E0000A6842F002020A60416841604168416055
:1015F000416841F480614160416821F47C1141609F
:10160000416841F4E8114160016841F08071016076
:1016100001688901FCD5416821F0030141604168FE
:1016200041F0020141604168C1F381010229FAD110
:101630000CBD0000001002400020024008B501214E
:101640008020FFF70BFE10208DF8030003208DF89B
:1016500002001E20ADF8000069460248FFF74AF973
:1016600008BD0000001C01404FF0E021042804D018
:10167000086920F0040008617047086940F0040020
:10168000086170477047000010B504466FF0040011
:10169000FFF7EAFF0649E008087000EB4002C2EBE2
:1016A000C0104FF6FF7202EAC000488010BD000073
:1016B0004400002010B50F48016841F001010160AD
:1016C00041680D4A1140416001680C4A11400160B7
:1016D000016821F480210160416821F4FE0141602C
:1016E0004FF41F018160FFF74FFF05494FF0006085
:1016F000086010BD001002400000FFF8FFFFF6FE7A
:1017000008ED00E000B59DB001210802FFF78AFD59
:1017100001200790002008900F2109910A900B905A
:101720000C900D90152100910191052102910390DB
:1017300004900590069006210E910F9010901021B4
:101740001191129014901390159016900902179110
:101750001890890019911A9007A81B90CDF870D0A5
:101760000EA8FEF7E7FF01210620FEF7D1FF1DB00E
:1017700000BD000038B501214FF4B470FFF76EFDD5
:101780004CF23370ADF8000018258DF80350032497
:101790008DF8024069461548FFF7ACF84FF68070A7
:1017A000ADF800008DF803508DF8024069461048EE
:1017B000FFF7A0F841F20100ADF800008DF80350EA
:1017C0008DF8024069460B48FFF794F80125ADF803
:1017D000005010208DF803008DF80240694606483D
:1017E000FFF788F80548056038BD00000014014087
:1017F0000018014000200140000C0140808121427E
:1018000010B5FFF7B7FFFFF77DFF322000F00CFEA9
:10181000D320FFF7C9FB9A4802889A484FF6FF7415
:1018200004EA02211143818097A000F07DFCFF2093
:10183000FFF7BAFBFF20FFF7B7FB052000F0F4FD30
:10184000FF20FFF7B1FBFF20FFF7AEFBFF20FFF704
:10185000ABFBFF20FFF7A8FB0A2000F0E5FDB0205E
:10186000FFF7A2FB0020FFF7A5FBB320FFF79CFBCF
:101870000220FFF79FFB0020FFF79CFB0020FFF7F3
:1018800099FB0020FFF796FBC020FFF78DFB13208C
:10189000FFF790FB3B20FFF78DFB0020FFF78AFB53
:1018A0000020FFF787FB0020FFF784FB0120FFF7F4
:1018B00081FB0020FFF77EFB4320FFF77BFBC1206D
:1018C000FFF772FB0820FFF775FB1B20FFF772FB89
:1018D0000820FFF76FFB0820FFF76CFBC420FFF721
:1018E00063FB1120FFF766FB0120FFF763FB73200A
:1018F000FFF760FB0120FFF75DFBC620FFF754FBFD
:101900000020FFF757FBC820FFF74EFB0F20FFF723
:1019100051FB0520FFF74EFB1420FFF74BFB5C202B
:10192000FFF748FB0320FFF745FB0720FFF742FBCB
:101930000720FFF73FFB1020FFF73CFB0020FFF7DD
:1019400039FB2320FFF736FB1020FFF733FB07207E
:10195000FFF730FB0720FFF72DFB5320FFF72AFB93
:101960000C20FFF727FB1420FFF724FB0520FFF7CF
:1019700021FB0F20FFF71EFB2320FFF71BFB00209E
:10198000FFF718FB3520FFF70FFB0020FFF712FBD6
:101990004420FFF709FB0020FFF70CFB0120FFF7B5
:1019A00009FBD020FFF700FB0720FFF703FB072010
:1019B000FFF700FB1D20FFF7FDFA0320FFF7FAFAFF
:1019C000D120FFF7F1FA0320FFF7F4FA5B20FFF7CD
:1019D000F1FA1020FFF7EEFAD220FFF7E5FA032024
:1019E000FFF7E8FA2420FFF7E5FA0420FFF7E2FA10
:1019F0002A20FFF7D9FA0020FFF7DCFA0020FFF7D2
:101A0000D9FA0120FFF7D6FA3F20FFF7D3FA2B20AF
:101A1000FFF7CAFA0020FFF7CDFA0020FFF7CAFA55
:101A20000120FFF7C7FADF20FFF7C4FA3620FFF7DF
:101A3000BBFA0020FFF7BEFAC020FFF7B5FA13206B
:101A4000FFF7B8FA3A20FFF7AFFA5520FFF7B2FADE
:101A50001120FFF7A9FA962000F0E6FC2920FFF7F5
:101A6000A3FA1E2000F0E0FC2C20FFF79DFA0020D6
:101A7000FFF748F92046BDE81040FFF721B9000004
:101A80000008006C2C000020204C43442049443ABC
:101A900025780D0A0000000030B589B004460D46D7
:101AA00001210820FFF7DAFB01210220FFF7C8FB24
:101AB00001210846FFF7D2FB2022ADF804200322C3
:101AC0008DF8062018228DF8072001A91748FEF787
:101AD00011FF01211648FEF761FFADF81C40ADF87B
:101AE00018500020ADF81E00ADF81A00114C06A9E0
:101AF000204600F023F96021ADF808100221ADF86E
:101B000010100121ADF80A1002A9204600F076F865
:101B10000821204600F0B6F80121204600F00CF81C
:101B20000121204600F014F809B030BD000C01403E
:101B300000081A0000040040002904D0018841F088
:101B4000800101807047018821F080010180704789
:101B5000002904D0018841F001010180704701880B
:101B600021F0010101807047018921F00701018105
:101B70007047000030B5028C22F001020284028C12
:101B80008388048B24F0700424F003050C882C4314
:101B900022F002020D8915434A882A43124DA842B9
:101BA0000BD0124DA84208D0114DA84205D0114DBE
:101BB000A84202D0104DA8420FD122F008054A8950
:101BC0002A4322F004058A882A4323F4807323F4ED
:101BD00000738D891D43CB892B4383800483C9887F
:101BE0008186028430BD0000002C01400034014099
:101BF00000400140004401400048014070B5028CA3
:101C000022F010020284028C8388048B24F4E044C6
:101C100024F440760D884FF6FF7404EA0525354319
:101C200022F020020E8904EA061616434A8804EAC6
:101C300002123243114EB04202D0114EB04217D1BF
:101C400022F080024E8904EA0616164326F040066A
:101C50008A8804EA0212324323F4806323F4006387
:101C60008E8904EA86061E43CB8904EA8303334344
:101C700083800583C9880187028470BD002C0140E0
:101C800000340140028B22F400624FF6FF7303EA36
:101C9000012111430183704770B5028C22F48072D8
:101CA0000284028C8388848B24F0700424F0030463
:101CB0000D88254322F400720E894FF6FF7404EA62
:101CC000062616434A8804EA02223243114EB042E5
:101CD00002D0114EB04217D122F400664A8904EABC
:101CE0000222324322F480668A8804EA02223243C6
:101CF00023F4805323F400538E8904EA06161E430E
:101D0000CB8904EA0313334383808583C9888187A1
:101D1000028470BD002C014000340140002101808C
:101D200041808180C180018141818181C181704771
:101D300081867047018770478187704730B5028878
:101D40001B4C1C4DA0420DD0A8420BD0B0F1804FCF
:101D500008D0194B984205D0184B984202D0184B26
:101D6000984203D122F070034A881A43154B9842D7
:101D700006D0154B984203D022F44073CA881A4308
:101D800002808A8882850A880285A0420AD0A842F9
:101D900008D00E4A904205D00D4A904202D00D4A1A
:101DA000904201D1097A01860121818230BD000073
:101DB000002C0140003401400004004000080040B5
:101DC000000C0040001000400014004000400140A2
:101DD00000440140004801402DE9FC472749481EC6
:101DE000FEF7DFFBDFF894900A25A9F1040909F159
:101DF0000A0799F80300B0FBF5F130313970B0FBF8
:101E0000F5F105FB1100303078704FF0000887F8CD
:101E100002801BA01826CDE900601C4C28210A2056
:101E200063882288FFF796F8CDE9006763882288E7
:101E300028215020FFF78EF899F80400B0FBF5F147
:101E40003031FF1C3970B0FBF5F105FB110030306B
:101E5000787087F802800EA0CDE900606388228840
:101E600046210A20FFF776F8CDE9006763882288CB
:101E700046215020FFF76EF8BDE8FC8704000020E3
:101E800054656D703A202020430000002C00002093
:101E900048756D693A2020202552480070B5164CCF
:101EA00040F22551204600F09CF800280ED0204634
:101EB00000F030F9C1B2114A1088030406D444047A
:101EC0004FF0000307D50A2901D0138070BD40F4FC
:101ED0000040108070BD0D290AD0094DC0F30D04DB
:101EE0002955401C80B21080C728F3D9138070BDDB
:101EF00040F48040108070BD003801404800002050
:101F00005000002070B586B0054601210420FFF77F
:101F1000A5F901218803FFF7A1F94FF40070ADF88E
:101F2000140003248DF8164018208DF817001F4E5A
:101F300005A93046FEF7DEFC3015ADF8140004208C
:101F40008DF8170005A93046FEF7D4FC0195002056
:101F5000ADF80800ADF80A00ADF80C00ADF81000BF
:101F60000C20ADF80E00124D01A9284600F074F8BF
:101F70000121284600F022F84021284600F01AF8F6
:101F8000012240F22551284600F04BF825208DF81B
:101F900000008DF801408DF8024001208DF803000B
:101FA0006846FFF701F906B070BD00000008014067
:101FB000003801408A05C94301807047002904D0D8
:101FC000818941F4005181817047818921F4005158
:101FD000818170470246002012880A4200D0012009
:101FE000704770B5002440F66A12C1F3421301F045
:101FF0001F05012606FA05F2012B0CD0022B0DD08D
:10200000838A1340090A8E40008830400BB100B12A
:102010000124204670BD83891340F3E7038A1340EF
:10202000F0E710B540F66A13C1F3421301F01F0444
:102030000121A140012B07D0022B07D014303AB167
:1020400002680A43026010BD0C30F8E71030F6E772
:1020500002688A43026010BD30B585B004460D4663
:10206000208A4CF6FF710840E98801432182A0894B
:102070004EF6F3110840A9882A8911436A89024360
:102080001143A181A08A4FF6FF410840A98901436D
:10209000A1826846FFF7FEF81D48844201D10398EB
:1020A00000E00298A189090408D500EBC00101EB0A
:1020B000001029684900B0FBF1F007E000EBC00117
:1020C00001EB001029688900B0FBF1F06422B0FB3D
:1020D000F2F109010B096FF018056B4300EB830067
:1020E000A3891D044FF0320307D503EBC000B0FBFA
:1020F000F2F000F00700084306E003EB0010B0FB2D
:10210000F2F000F00F000843208105B030BD000060
:10211000003801408088C0F308007047C1F308010F
:1021200081807047FEE700000FB4054B10B503A98E
:10213000044A029800F018F810BC5DF814FB000087
:10214000912400084C00002002E008C8121F08C1BA
:10215000002AFAD170477047002001E001C1121F28
:10216000002AFBD1704700002DE9FF4F8DB09B4640
:102170000F460446002606E025280BD05A460F9944
:102180009047641C761C20780028F5D111B03046A9
:10219000BDE8F08F0025A8460122984900E00543DC
:1021A00014F8013F203B02FA03F00842F7D12078EF
:1021B0002E2817D114F8010F45F004052A280ED057
:1021C0006FF02F022078A0F1300109290AD808EB1E
:1021D000880102EB410100EB0108641CF2E757F8AB
:1021E000048B641C20786C280DD004DC4C2812D0A1
:1021F0006A2811D104E074280DD07A280CD10AE0A5
:1022000045F4001507E0617845F48015814202D15C
:10221000641C05F58015641C2078692844D008DC0E
:102220000028B3D0582867D063280FD0642808D17D
:102230003AE0702865D0732812D075285AD07828D3
:102240005AD05A460F999047761CD5E017F8040BE0
:102250008DF8000000208DF80100E946012003E020
:1022600057F8049B4FF0FF3069074FF0000501D489
:102270000AE06D1C45450DDA8542FADB19F80510B8
:102280000029F6D106E06D1C8542FCDB19F805102B
:102290000029F8D12E4404E019F8010B5A460F9991
:1022A00090476D1EF8D2A7E00A200021CDE9080171
:1022B000C5F3025002280CD001CFC117021E71F1E4
:1022C00000020CDA0023D0EB030063EB01012D22A6
:1022D00008E0FF1D27F00707F7E80201EEE72A05EF
:1022E00004D52B228DF8282001223CE0EA073AD0C1
:1022F0002022F7E70A2000E010200021CDE90801A4
:1023000007E01020002145F00405CDE908014FF059
:102310000808C5F30250022810D001CF00214FF069
:10232000000A2A0720D52278702A0DD0DDE908C3DB
:102330008CF0100C5CEA030C0CD015E0FF1D27F0AC
:102340000707F7E80201EAE740228DF828204FF05E
:10235000010A0CE050EA010306D030238DF8283042
:102360008DF82920022292462278582A04D024A2ED
:102370000DF120090B9209E026A2F9E7DDE9082317
:10238000FDF7F4FE0B9B9B5C09F8013D50EA01024E
:10239000F4D1ADEB090020300890680701D44FF06C
:1023A00001080899884503DD0898A8EB000000E0C3
:1023B00000208046002506E00AA85A46405D0F9995
:1023C00090476D1C761C5545F6DB04E030205A46DC
:1023D0000F999047761CB8F10001A8F10108F5DCCF
:1023E00005E019F8010B5A460F999047761C089999
:1023F000481E08900029F4DC641CC4E6092801008A
:10240000303132333435363738396162636465666A
:10241000000000003031323334353637383941422C
:1024200043444546000000000B49498848434FF0AB
:10243000E021486100238B61086940F001000861D8
:102440000869C20701D0C003FAD5086920F001006D
:1024500008618B6170470000440000200B49097837
:1024600048434FF0E021486100238B61086940F048
:10247000010008610869C20701D0C003FAD50869E4
:1024800020F0010008618B617047000044000020CB
:1024900070B50446064DE1B22846FFF73FFE8021A5
:1024A0002846FFF797FD0028F9D0204670BD0000B0
:1024B0000038014008B54820FFF7E6F84FF4A06067
:1024C000FEF7A4FEFEF782FD4FF4E130FFF71AFDA0
:1024D000FFF796F9FEF712F8FEF718FEFEF7BCFBC1
:1024E000FFF7ACF8FDF770FFFEF7C2F9FEF780FFCB
:1024F0001B4900200880A0211420FEF733FC194D51
:10250000E880014618A0FFF70FFE1A4840F21713A3
:1025100000901A1FAA211420FEF7E0FC164E142486
:102520002878401CC0B22870B0FBF4F104FB110005
:1025300028B9D6F8940180B10020C6F89401FEF7BE
:1025400089FDFFF749FCFDF75BFFFEF7D5FAFEF7C3
:1025500057F91420FFF768FFE2E70120EDE70000DC
:102560002800002000000020636F6C6F723D25780A
:102570000D0A0000C4FF0108008021422DE9F04748
:10258000824689461646002520E00024124F07F1B6
:102590000408B9F1010F0AD00020FEF78BFF18F8EC
:1025A0000400FEF787FF022E08DD334607E0002017
:1025B000FEF780FF385DFEF77DFFF4E7022398B257
:1025C000FFF732FF641C042CE3DB6D1CB5EBCA0F74
:1025D000DBDBBDE8F08700003C000020FFFFFFFFD1
:1025E000FFFFFFFFFFFFFFFFFFFFFFFFFFFFFFFFFB
:1025F000FFFFFFFFFFFFFFFFFFFFFFFFFFFFFFFFEB
:10260000FFFFFFFFFFFFFFFFFFFFFFFFFFFFFFFFDA
:10261000FFFFFFFFFFFFFFFFFFFFFFFFFFFFFFFFCA
:10346000FFFFFFFFFFFFFFFFFFFFFFFFFFFFFFF774
:10347000FFFFFFFFFFFFFFFFFFFFFFFFFFFFFFFF5C
:10348000FFFFFFFFFFFFFFFFFFFFFFFFFFFFFFFF4C
:10349000FFFFFFFFFFFFFFFFFFFFFFFFFFFFFFFF3C
:1034A000FFFFFFFFFFFFFFFFFFFFFFFFFFFFFFFF2C
:1034B000FFFFFFFFFFFFFFFFFFFFFFFFFFFFFFFF1C
:1034C000FFFFFFFFFFFFFFFFFFFFFFFFFFFFFFFF0C
:1034D000FFFFFFFFFFFFFFFFFFFFFFFFFFFFFFFFFC
:1034E000FFFFFFFFFFFFFFFFFFFFFFFFFFFFFFFFEC
:1034F000FFFFFFFFFFFFFFFFFFFFFFFFFFFFFFFFDC
:10350000FFFFFFFFFFFFFFFFFFFFFFFFFFFFFFFFCB
:10351000FFFFFFFFFFFFFFFFFFFFFFFFFFFFFFFFBB
:10352000FFFFFFFFFFFFFFFFFFFFFFFFFFFFFFFFAB
:10353000FFFFFFFFFFFFFFFFFFFFFFFFFFFFFFFF9B
:10354000FFFFFFFFFFFFFFFFFFFFFFFFFFFFFFFF8B
:10355000FFFFFFFFFFFFFFFFFFFFFFFFFFFFFFFF7B
:10356000FFFFFFFFFFFFFFFFFFFFFFFFFFFFFFFF6B
:10357000FFFFFFFFFFFFFFFFFFFFFFFFFFFFFFFF5B
:10358000FFFFFFFFFFFFFFFFFFFFFFFFFFFFFFFF4B
:10359000FFFFFFFFFFFFFFFFFFFFDEFFAAC29FFF4E
:1035A000FFFFFFFFFFFFFFFFFFFFFFFFFFFFFFFF2B
:1035B000FFFFFFFFFFFFFFFFFFFFFFFFFFFFFFFF1B
:1035C000FFFFFFFFFFFFFFFFFFFFFFFFFFFFFFFF0B
:1035D000FFFFFFFFFFFFFFFFFFFFFFFFFFFFFFFFFB
:1035E000FFFFFFFFFFFFFFFFFFFFFFFFFFFFFFFFEB
:1035F000FFFFFFFFFFFFFFFFFFFFFFFFFFFFFFFFDB
:10360000FFFFFFFFFFFFFFFFFFFFFFFFFFFFFFFFCA
:10361000FFFFFFFFFFFFFFFFFFFFFFFFFFFFFFFFBA
:10362000FFFFFFFFFFFFFFFFFFFFFFFFFFFFFFFFAA
:10363000FFFFFFFFFFFFFFFFFFFFFFFFFFFFFFFF9A
:10364000FFFFFFFFFFFFFFFFFFFFFFFFFFFFFFFF8A
:10365000FFFFFFFFFFFFFFFFFFFFFFFFFFFFFFFF7A
:10366000FFFFFFFFFFFFFFFFFFFFFFFFFFFFFFFF6A
:10367000FFFFFFFFFFFFFFFFFFFFFFFFFFFFFFFF5A
:10368000FFFFFFFFFFFFFFFFFFFFFFFFFFFFFFFF4A
:10369000FFFFFFFFFFFFFFFFFFFFFFFFFFFFFFFF3A
:1036A000FFFFFFFFFFFFFFFFFFFFFFFFFFFFFFFF2A
:1036B000FFFFFFFFFFFFFFFFFFFFFFFFFFFFFFFF1A
:1036C000FFFFFFFFFFFFDFFF04C1A3D0DEF7FEF720
:1036D000DFFFFFFFFFFFFFFFFFFFFFFFFFFFFFFF1A
:1036E000FFFFFFFFFFFFFFFFFFFFFFFFFFFFFFFFEA
:1036F000FFFFFFFFFFFFFFFFFFFFFFFFFFFFFFFFDA
:10370000FFFFFFFFFFFFFFFFFFFFFFFFFFFFFFFFC9
:10371000FFFFFFFFFFFFFFFFFFFFFFFFFFFFFFFFB9
:10372000FFFFFFFFFFFFFFFFFFFFFFFFFFFFFFFFA9
:10373000FFFFFFFFFFFFFFFFFFFFFFFFFFFFFFFF99
:10374000FFFFFFFFFFFFFFFFFFFFFFFFFFFFFFFF89
:10375000FFFFFFFFFFFFFFFFFFFFFFFFFFFFFFFF79
:10376000FFFFFFFFFFFFFFFFFFFFFFFFFFFFFFFF69
:10377000FFFFFFFFFFFFFFFFFFFFFFFFFFFFFFFF59
:10378000FFFFFFFFFFFFFFFFFFFFFFFFFFFFFFFF49
:10379000FFFFFFFFFFFFFFFFFFFFFFFFFFFFFFFF39
:1037A000FFFFFFFFFFFFFFFFFFFFFFFFFFFFFFFF29
:1037B000FFFFFFFFFFFFFFFFFFFFFFFFFFFFFFFF19
:1037C000FFFFFFFFFFFFFFFFFFFFFFFFFFFFFFFF09
:1037D000FFFFFFFFFFFFFFFFFFFFFFFFFFFFFFFFF9
:1037E000FFFFFFFFFFFFFFFFFFFFFFFFFFFFFFFFE9
:1037F000FFFFFFFFBAFE40F062E8DDF7FFFFFFFFCB
:10380000FFFFFFFFFFFFFFFFFFFFFFFFFFFFFFFFC8
:10381000FFFFFFFFFFFFFFFFFFFFFFFFFFFFFFFFB8
:10382000FFFFFFFFFFFFFFFFFFFFFFFFFFFFFFFFA8
:10383000FFFFFFFFFFFFFFFFFFFFFFFFFFFFFFFF98
:10384000FFFFFFFFFFFFFFFFFFFFFFFFFFFFFFFF88
:10385000FFFFFFFFFFFFFFFFFFFFFFFFFFFFFFFF78
:10386000FFFFFFFFFFFFFFFFFFFFFFFFFFFFFFFF68
:10387000FFFFFFFFFFFFFFFFFFFFFFFFFFFFFFFF58
:10388000FFFFFFFFFFFFFFFFFFFFFFFFFFFFFFFF48
:10389000FFFFFFFFFFFFFFFFFFFFFFFFFFFFFFFF38
:1038A000FFFFFFFFFFFFFFFFFFFFFFFFFFFFFFFF28
:1038B000FFFFFFFFFFFFFFFFFFFFFFFFFFFFFFFF18
:1038C000FFFFFFFFFFFFFFFFFFFFFFFFFFFFFFFF08
:1038D000FFFFFFFFFFFFFFFFFFFFFFFFFFFFFFFFF8
:1038E000FFFFFFFFFFFFFFFFFFFFFFFFFFFFFFFFE8
:1038F000FFFFFFFFFFFFFFFFFFFFFFFFFFFFFFFFD8
:10390000FFFFFFFFFFFFFFFFFFFFFFFFFFFFFFFFC7
:10391000FFFFFFFFFFFFFFFFFFFFFFFFFFFFFFFFB7
:10392000FEFF20F800F841E83CF7BEFFFFFFFFFF75
:10393000FFFFFFFFFFFFFFFFFFFFFFFFFFFFFFFF97
:10394000FFFFFFFFFFFFFFFFFFFFFFFFFFFFFFFF87
:10395000FFFFFFFFFFFFFFFFFFFFFFFFFFFFFFFF77
:10396000FFFFFFFFFFFFFFFFFFFFFFFFFFFFFFFF67
:10397000FFFFFFFFFFFFFFFFFFFFFFFFFFFFFFFF57
:10398000FFFFFFFFFFFFFFFFFFFFFFFFFFFFFFFF47
:10399000FFFFFFFFFFFFFFFFFFFFFFFFFFFFFFFF37
:1039A000FFFFFFFFFFFFFFFFFFFFFFFFFFFFFFFF27
:1039B000FFFFFFFFFFFFFFFFFFFFFFFFFFFFFFFF17
:1039C000FFFFFFFFFFFFFFFFFFFFFFFFFFFFFFFF07
:1039D000FFFFFFFFFFFFFFFFFFFFFFFFFFFFFFFFF7
:1039E000FFFFFFFFFFFFFFFFFFFFFFFFFFFFFFFFE7
:1039F000FFFFFFFFFFFFFFFFFFFFFFFFFFFFFFFFD7
:103A0000FFFFFFFFFFFFFFFFFFFFFFFFFFFFFFFFC6
:103A1000FFFFFFFFFFFFFFFFFFFFFFFFFFFFFFFFB6
:103A2000FFFFFFFFFFFFFFFFFFFFFFFFFFFFFFFFA6
:103A3000FFFFFFFFFFFFFFFFFFFFFFFFFFFFFFFF96
:103A4000FFFFFFFFFFFFFFFFFFFFFFFFFFFF62D84A
:103A500000F820F821F0BCFFFFFFFFFFFFFFFFFF92
:103A6000FFFFFFFFFFFFFFFFFFFFFFFFFFFFFFFF66
:103A7000FFFFFFFFFFFFFFFFFFFFFFFFFFFFFFFF56
:103A8000FFFFFFFFFFFFFFFFFFFFFFFFFFFFFFFF46
:103A9000FFFFFFFFFFFFFFFFFFFFFFFFFFFFFFFF36
:103AA000FFFFFFFFFFFFFFFFFFFFFFFFFFFFFFFF26
:103AB000FFFFFFFFFFFFFFFFFFFFFFFFFFFFFFFF16
:103AC000FFFFFFFFFFFFFFFFFFFFFFFFFFFFFFFF06
:103AD000FFFFFFFFFFFFFFFFFFFFFFFFFFFFFFFFF6
:103AE000FFFFFFFFFFFFFFFFFFFFFFFFFFFFFFFFE6
:103AF000FFFFFFFFFFFFFFFFFFFFFFFFFFFFFFFFD6
:103B0000FFFFFFFFFFFFFFFFFFFFFFFFFFFFFFFFC5
:103B1000FFFFFFFFFFFFFFFFFFFFFFFFFFFFFFFFB5
:103B2000FFFFFFFFFFFFFFFFFFFFFFFFFFFFFFFFA5
:103B3000FFFFFFFFFFFFFFFFFFFFFFFFFFFFFFFF95
:103B4000FFFFFFFFFFFFFFFFFFFFFFFFFFFFFFFF85
:103B5000FFFFFFFFFFFFFFFFFFFFFFFFFFFFFFFF75
:103B6000FFFFFFFFFFFFFFFFFFFFFFFFFFFFFFFF65
:103B7000FFFFFFFFFFFFFFFFDFFF08D220F800F885
:103B800000F800F85BFFFFFFFFFFFFFFFFFFFFFFF5
:103B9000FFFFFFFFFFFFFFFFFFFFFFFFFFFFFFFF35
:103BA000FFFFFFFFFFFFFFFFFFFFFFFFFFFFFFFF25
:103BB000FFFFFFFFFFFFFFFFFFFFFFFFFFFFFFFF15
:103BC000FFFFFFFFFFFFFFFFFFFFFFFFFFFFFFFF05
:103BD000FFFFFFFFFFFFFFFFFFFFFFFFFFFFFFFFF5
:103BE000FFFFFFFFFFFFFFFFFFFFFFFFFFFFFFFFE5
:103BF000FFFFFFFFFFFFFFFFFFFFFFFFFFFFFFFFD5
:103C0000FFFFFFFFFFFFFFFFFFFFFFFFFFFFFFFFC4
:103C1000FFFFFFFFFFFFFFFFFFFFFFFFFFFFFFFFB4
:103C2000FFFFFFFFFFFFFFFFFFFFFFFFFFFFFFFFA4
:103C3000FFFFFFFFFFFFFFFFFFFFFFFFFFFFFFFF94
:103C4000FFFFFFFFFFFFFFFFFFFFFFFFFFFFFFFF84
:103C5000FFFFFFFFFFFFFFFFFFFFFFFFFFFFFFFF74
:103C6000FFFFFFFFFFFFFFFFFFFFFFFFFFFFFFFF64
:103C7000FFFFFFFFFFFFFFFFFFFFFFFFFFFFFFFF54
:103C8000FFFFFFFFFFFFFFFFFFFFFFFFFFFFFFFF44
:103C9000FFFFFFFFFFFFFFFFFFFFFFFFFFFFFFFF34
:103CA000FFFFFFFFFFFF5BFF20F800F800F800F0C8
:103CB00041E8BCFFDFFFFFFFFFFFFFFFFFFFFFFF4C
:103CC000FFFFFFFFFFFFFFFFFFFFFFFFFFFFFFFF04
:103CD000FFFFFFFFFFFFFFFFFFFFFFFFFFFFFFFFF4
:103CE000FFFFFFFFFFFFFFFFFFFFFFFFFFFFFFFFE4
:103CF000FFFFFFFFFFFFFFFFFFFFFFFFFFFFFFFFD4
:103D0000FFFFFFFFFFFFFFFFFFFFFFFFFFFFFFFFC3
:103D1000FFFFFFFFFFFFFFFFFFFFFFFFFFFFFFFFB3
:103D2000FFFFFFFFFFFFFFFFFFFFFFFFFFFFFFFFA3
:103D3000FFFFFFFFFFFFFFFFFFFFFFFFFFFFFFFF93
:103D4000FFFFFFFFFFFFFFFFFFFFFFFFFFFFFFFF83
:103D5000FFFFFFFFFFFFFFFFFFFFFFFFFFFFFFFF73
:103D6000FFFFFFFFFFFFFFFFFFFFFFFFFFFFFFFF63
:103D7000FFFFFFFFFFFFFFFFFFFFFFFFFFFFFFFF53
:103D8000FFFFFFFFFFFFFFFFFFFFFFFFFFFFFFFF43
:103D9000FFFFFFFFFFFFFFFFFFFFFFFFFFFFFFFF33
:103DA000FFFFFFFFFFFFFFFFFFFFFFFFFFFFFFFF23
:103DB000FFFFFFFFFFFFFFFFFFFFFFFFFFFFFFFF13
:103DC000FFFFFFFFFFFFFFFFFFFFFFFFFFFFFFFF03
:103DD000FFFFDFFF00F800F800F800F800F020F027
:103DE000BEFFFFFFFFFFFFFFFFFFFFFFFFFFFFFF24
:103DF000FFFFFFFFFFFFFFFFFFFFFFFFFFFFFFFFD3
:103E0000FFFFFFFFFFFFFFFFFFFFFFFFFFFFFFFFC2
:103E1000FFFFFFFFFFFFFFFFFFFFFFFFFFFFFFFFB2
:103E2000FFFFFFFFFFFFFFFFFFFFFFFFFFFFFFFFA2
:103E3000FFFFFFFFFFFFFFFFFFFFFFFFFFFFFFFF92
:103E4000FFFFFFFFFFFFFFFFFFFFFFFFFFFFFFFF82
:103E5000FFFFFFFFFFFFFFFFFFFFFFFFFFFFFFFF72
:103E6000FFFFFFFFFFFFFFFFFFFFFFFFFFFFFFFF62
:103E7000FFFFFFFFFFFFFFFFFFFFFFFFFFFFFFFF52
:103E8000FFFFFFFFFFFFFFFFFFFFFFFFFFFFFFFF42
:103E9000FFFFFFFFFFFFFFFFFFFFFFFFFFFFFFFF32
:103EA000FFFFFFFFFFFFFFFFFFFFFFFFFFFFFFFF22
:103EB000FFFFFFFFFFFFFFFFFFFFFFFFFFFFFFFF12
:103EC000FFFFFFFFFFFFFFFFFFFFFFFFFFFFFFFF02
:103ED000FFFFFFFFFFFFFFFFFFFFFFFFFFFFFFFFF2
:103EE000FFFFFFFFFFFFFFFFFFFFFFFFFFFFFFFFE2
:103EF000FFFFFFFFFFFFFFFFFFFFFFFFFFFFFFFFD2
:103F000041F000F800F800F800F800F842E0FFF790
:103F1000FFFFFFFFFFFFFFFFFFFFFFFFFFFFFFFFB1
:103F2000FFFFFFFFFFFFFFFFFFFFFFFFFFFFFFFFA1
:103F3000FFFFFFFFFFFFFFFFFFFFFFFFFFFFFFFF91
:103F4000FFFFFFFFFFFFFFFFFFFFFFFFFFFFFFFF81
:103F5000FFFFFFFFFFFFFFFFFFFFFFFFFFFFFFFF71
:103F6000FFFFFFFFFFFFFFFFFFFFFFFFFFFFFFFF61
:103F7000FFFFFFFFFFFFFFFFFFFFFFFFFFFFFFFF51
:103F8000FFFFFFFFFFFFFFFFFFFFFFFFFFFFFFFF41
:103F9000FFFFFFFFFFFFFFFFFFFFFFFFFFFFFFFF31
:103FA000FFFFFFFFFFFFFFFFFFFFFFFFFFFFFFFF21
:103FB000FFFFFFFFFFFFFFFFFFFFFFFFFFFFFFFF11
:103FC000FFFFFFFFFFFFFFFFFFFFFFFFFFFFFFFF01
:103FD000FFFFFFFFFFFFFFFFFFFFFFFFFFFFFFFFF1
:103FE000FFFFFFFFFFFFFFFFFFFFFFFFFFFFFFFFE1
:103FF000FFFFFFFFFFFFFFFFFFFFFFFFFFFFFFFFD1
:10400000FFFFFFFFFFFFFFFFFFFFFFFFFFFFFFFFC0
:10401000FFFFFFFFFFFFFFFFFFFFFFFFFFFFFFFFB0
:10402000FFFFFFFFFFFFFFFFFFFFFFFFE3D000F8F1
:1040300000F800F800F820F020F062E0FEEFFFFF4B
:10404000FFFFFFFFFFFFFFFFFFFFFFFFFFFFFFFF80
:10405000FFFFFFFFFFFFFFFFFFFFFFFFFFFFFFFF70
:10406000FFFFFFFFFFFFFFFFFFFFFFFFFFFFFFFF60
:10407000FFFFFFFFFFFFFFFFFFFFFFFFFFFFFFFF50
:10408000FFFFFFFFFFFFFFFFFFFFFFFFFFFFFFFF40
:10409000FFFFFFFFFFFFFFFFFFFFFFFFFFFFFFFF30
:1040A000FFFFFFFFFFFFFFFFFFFFFFFFFFFFFFFF20
:1040B000FFFFFFFFFFFFFFFFFFFFFFFFFFFFFFFF10
:1040C000FFFFFFFFFFFFFFFFFFFFFFFFFFFFFFFF00
:1040D000FFFFFFFFFFFFFFFFFFFFFFFFFFFFFFFFF0
:1040E000FFFFFFFFFFFFFFFFFFFFFFFFFFFFFFFFE0
:1040F000FFFFFFFFFFFFFFFFFFFFFFFFFFFFFFFFD0
:10410000FFFFFFFFFFFFFFFFFFFFFFFFFFFFFFFFBF
:10411000FFFFFFFFFFFFFFFFFFFFFFFFFFFFFFFFAF
:10412000FFFFFFFFFFFFFFFFFFFFFFFFFFFFFFFF9F
:10413000FFFFFFFFFFFFFFFFFFFFFFFFFFFFFFFF8F
:10414000FFFFFFFFFFFFFFFFFFFFFFFFFFFFFFFF7F
:10415000FFFFFFFFFFFFFFFFF3F440F000F800F860
:1041600000F800F800F820F866D1BFFFFFFFBFFF9E
:10417000FFFFFFFFFFFFFFFFFFFFFFFFFFFFFFFF4F
:10418000FFFFFFFFFFFFFFFFFFFFFFFFFFFFFFFF3F
:10419000FFFFFFFFFFFFFFFFFFFFFFFFFFFFFFFF2F
:1041A000FFFFFFFFFFFFFFFFFFFFFFFFFFFFFFFF1F
:1041B000FFFFFFFFFFFFFFFFFFFFFFFFFFFFFFFF0F
:1041C000FFFFFFFFFFFFFFFFFFFFFFFFFFFFFFFFFF
:1041D000FFFFFFFFFFFFFFFFFFFFFFFFFFFFFFFFEF
:1041E000FFFFFFFFFFFFFFFFFFFFFFFFFFFFFFFFDF
:1041F000FFFFFFFFFFFFFFFFFFFFFFFFFFFFFFFFCF
:10420000FFFFFFFFFFFFFFFFFFFFFFFFFFFFFFFFBE
:10421000FFFFFFFFFFFFFFFFFFFFFFFFFFFFFFFFAE
:10422000FFFFFFFFFFFFFFFFFFFFFFFFFFFFFFFF9E
:10423000FFFFFFFFFFFFFFFFFFFFFFFFFFFFFFFF8E
:10424000FFFFFFFFFFFFFFFFFFFFFFFFFFFFFFFF7E
:10425000FFFFFFFFFFFFFFFFFFFFFFFFFFFFFFFF6E
:10426000FFFFFFFFFFFFFFFFFFFFFFFFFFFFFFFF5E
:10427000FFFFFFFFFFFFFFFFFFFFFFFFFFFFFFFF4E
:10428000FFFFFFFF7CFF40F000F800F800F800F8A7
:1042900000F800F840F034F5DFFFFFFFFFFFFFFFFD
:1042A000FFFFFFFFFFFFFFFFFFFFFFFFFFFFFFFF1E
:1042B000FFFFFFFFFFFFFFFFFFFFFFFFFFFFFFFF0E
:1042C000FFFFFFFFFFFFFFFFFFFFFFFFFFFFFFFFFE
:1042D000FFFFFFFFFFFFFFFFFFFFFFFFFFFFFFFFEE
:1042E000FFFFFFFFFFFFFFFFFFFFFFFFFFFFFFFFDE
:1042F000FFFFFFFFFFFFFFFFFFFFFFFFFFFFFFFFCE
:10430000FFFFFFFFFFFFFFFFFFFFFFFFFFFFFFFFBD
:10431000FFFFFFFFFFFFFFFFFFFFFFFFFFFFFFFFAD
:10432000FFFFFFFFFFFFFFFFFFFFFFFFFFFFFFFF9D
:10433000FFFFFFFFFFFFFFFFFFFFFFFFFFFFFFFF8D
:10434000FFFFFFFFFFFFFFFFFFFFFFFFFFFFFFFF7D
:10435000FFFFFFFFFFFFFFFFFFFFFFFFFFFFFFFF6D
:10436000FFFFFFFFFFFFFFFFFFFFFFFFFFFFFFFF5D
:10437000FFFFFFFFFFFFFFFFFFFFFFFFFFFFFFFF4D
:10438000FFFFFFFFFFFFFFFFFFFFFFFFFFFFFFFF3D
:10439000FFFFFFFFFFFFFFFFFFFFFFFFFFFFFFFF2D
:1043A000FFFFFFFFFFFFFFFFFFFFFFFFFFFFFFFF1D
:1043B000FFFF20F800F800F800F800F800F800F817
:1043C00000F840E87CFFFFFFFFFFFFFFFFFFFFFF5C
:1043D000FFFFFFFFFFFFFFFFFFFFFFFFFFFFFFFFED
:1043E000FFFFFFFFFFFFFFFFFFFFFFFFFFFFFFFFDD
:1043F000FFFFFFFFFFFFFFFFFFFFFFFFFFFFFFFFCD
:10440000FFFFFFFFFFFFFFFFFFFFFFFFFFFFFFFFBC
:10441000FFFFFFFFFFFFFFFFFFFFFFFFFFFFFFFFAC
:10442000FFFFFFFFFFFFFFFFFFFFFFFFFFFFFFFF9C
:10443000FFFFFFFFFFFFFFFFFFFFFFFFFFFFFFFF8C
:10444000FFFFFFFFFFFFFFFFFFFFFFFFFFFFFFFF7C
:10445000FFFFFFFFFFFFFFFFFFFFFFFFFFFFFFFF6C
:10446000FFFFFFFFFFFFFFFFFFFFFFFFFFFFFFFF5C
:10447000FFFFFFFFFFFFFFFFFFFFFFFFFFFFFFFF4C
:10448000FFFFFFFFFFFFFFFFFFFFFFFFFFFFFFFF3C
:10449000FFFFFFFFFFFFFFFFFFFFFFFFFFFFFFFF2C
:1044A000FFFFFFFFFFFFFFFFFFFFFFFFFFFFFFFF1C
:1044B000FFFFFFFFFFFFFFFFFFFFFFFFFFFFFFFF0C
:1044C000FFFFFFFFFFFFFFFFFFFFFFFFFFFFFFFFFC
:1044D000FFFFFFFFFFFFFFFFFFFFFFFFFFFF20F0DA
:1044E00000F800F800F800F800F800F800F800F80C
:1044F00021F0DEF7FFFFFFFFFFFFFFFFFFFFFFFFE2
:10450000FFFFFFFFFFFFFFFFFFFFFFFFFFFFFFFFBB
:10451000FFFFFFFFFFFFFFFFFFFFFFFFFFFFFFFFAB
:10452000FFFFFFFFFFFFFFFFFFFFFFFFFFFFFFFF9B
:10453000FFFFFFFFFFFFFFFFFFFFFFFFFFFFFFFF8B
:10454000FFFFFFFFFFFFFFFFFFFFFFFFFFFFFFFF7B
:10455000FFFFFFFFFFFFFFFFFFFFFFFFFFFFFFFF6B
:10456000FFFFFFFFFFFFFFFFFFFFFFFFFFFFFFFF5B
:10457000FFFFFFFFFFFFFFFFFFFFFFFFFFFFFFFF4B
:10458000FFFFFFFFFFFFFFFFFFFFFFFFFFFFFFFF3B
:10459000FFFFFFFFFFFFFFFFFFFFFFFFFFFFFFFF2B
:1045A000FFFFFFFFFFFFFFFFFFFFFFFFFFFFFFFF1B
:1045B000FFFFFFFFFFFFFFFFFFFFFFFFFFFFFFFF0B
:1045C000FFFFFFFFFFFFFFFFFFFFFFFFFFFFFFFFFB
:1045D000FFFFFFFFFFFFFFFFFFFFFFFFFFFFFFFFEB
:1045E000FFFFFFFFFFFFFFFFFFFFFFFFFFFFFFFFDB
:1045F000FFFFFFFFFFFFFFFFFFFFFFFFFFFFFFFFCB
:10460000FFFFFFFFFFFFFFFFFFFF62D800F800F88A
:1046100000F800F800F800F800F800F820E8C3C03F
:10462000FFFFFFFFFFFFFFFFFFFFFFFFFFFFFFFF9A
:10463000FFFFFFFFFFFFFFFFFFFFFFFFFFFFFFFF8A
:10464000FFFFFFFFFFFFFFFFFFFFFFFFFFFFFFFF7A
:10465000FFFFFFFFFFFFFFFFFFFFFFFFFFFFFFFF6A
:10466000FFFFFFFFFFFFFFFFFFFFFFFFFFFFFFFF5A
:10467000FFFFFFFFFFFFFFFFFFFFFFFFFFFFFFFF4A
:10468000FFFFFFFFFFFFFFFFFFFFFFFFFFFFFFFF3A
:10469000FFFFFFFFFFFFFFFFFFFFFFFFFFFFFFFF2A
:1046A000FFFFFFFFFFFFFFFFFFFFFFFFFFFFFFFF1A
:1046B000FFFFFFFFFFFFFFFFFFFFFFFFFFFFFFFF0A
:1046C000FFFFFFFFFFFFFFFFFFFFFFFFFFFFFFFFFA
:1046D000FFFFFFFFFFFFFFFFFFFFFFFFFFFFFFFFEA
:1046E000FFFFFFFFFFFFFFFFFFFFFFFFFFFFFFFFDA
:1046F000FFFFFFFFFFFFFFFFFFFFFFFFFFFFFFFFCA
:10470000FFFFFFFFFFFFFFFFFFFFFFFFFFFFFFFFB9
:10471000FFFFFFFFFFFFFFFFFFFFFFFFFFFFFFFFA9
:10472000FFFFFFFFFFFFFFFFFFFFFFFFFFFFFFFF99
:10473000FFFFFFFFFFFFC5D000F800F800F800F80A
:1047400000F800F800F800F800F820F899F6FFFFEC
:10475000FFFFFFFFFFFFFFFFFFFFFFFFFFFFFFFF69
:10476000FFFFFFFFFFFFFFFFFFFFFFFFFFFFFFFF59
:10477000FFFFFFFFFFFFFFFFFFFFFFFFFFFFFFFF49
:10478000FFFFFFFFFFFFFFFFFFFFFFFFFFFFFFFF39
:10479000FFFFFFFFFFFFFFFFFFFFFFFFFFFFFFFF29
:1047A000FFFFFFFFFFFFFFFFFFFFFFFFFFFFFFFF19
:1047B000FFFFFFFFFFFFFFFFFFFFFFFFFFFFFFFF09
:1047C000FFFFFFFFFFFFFFFFFFFFFFFFFFFFFFFFF9
:1047D000FFFFFFFFFFFFFFFFFFFFFFFFFFFFFFFFE9
:1047E000FFFFFFFFFFFFFFFFFFFFFFFFFFFFFFFFD9
:1047F000FFFFFFFFFFFFFFFFFFFFFFFFFFFFFFFFC9
:10480000FFFFFFFFFFFFFFFFFFFFFFFFFFFFFFFFB8
:10481000FFFFFFFFFFFFFFFFFFFFFFFFFFFFFFFFA8
:10482000FFFFFFFFFFFFFFFFFFFFFFFFFFFFFFFF98
:10483000FFFFFFFFFFFFFFFFFFFFFFFFFFFFFFFF88
:10484000FFFFFFFFFFFFFFFFFFFFFFFFFFFFFFFF78
:10485000FFFFFFFFFFFFFFFFFFFFFFFFFFFFFFFF68
:10486000FFFF2FDC00F000F800F800F800F800F877
:1048700000F800F800F800F800E8DEFFFFFFFFFF97
:10488000FFFFFFFFFFFFFFFFFFFFFFFFFFFFFFFF38
:10489000FFFFFFFFFFFFFFFFFFFFFFFFFFFFFFFF28
:1048A000FFFFFFFFFFFFFFFFFFFFFFFFFFFFFFFF18
:1048B000FFFFFFFFFFFFFFFFFFFFFFFFFFFFFFFF08
:1048C000FFFFFFFFFFFFFFFFFFFFFFFFFFFFFFFFF8
:1048D000FFFFFFFFFFFFFFFFFFFFFFFFFFFFFFFFE8
:1048E000FFFFFFFFFFFFFFFFFFFFFFFFFFFFFFFFD8
:1048F000FFFFFFFFFFFFFFFFFFFFFFFFFFFFFFFFC8
:10490000FFFFFFFFFFFFFFFFFFFFFFFFFFFFFFFFB7
:10491000FFFFFFFFFFFFFFFFFFFFFFFFFFFFFFFFA7
:10492000FFFFFFFFFFFFFFFFFFFFFFFFFFFFFFFF97
:10493000FFFFFFFFFFFFFFFFFFFFFFFFFFFFFFFF87
:10494000FFFFFFFFFFFFFFFFFFFFFFFFFFFFFFFF77
:10495000FFFFFFFFFFFFFFFFFFFFFFFFFFFFFFFF67
:10496000FFFFFFFFFFFFFFFFFFFFFFFFFFFFFFFF57
:10497000FFFFFFFFFFFFFFFFFFFFFFFFFFFFFFFF47
:10498000FFFFFFFFFFFFFFFFFFFFFFFFFFFFFAFE3D
:1049900020F000F800F800F800F800F800F800F83F
:1049A00000F800F800F804D1BFFFFFF7DFFFFFFFBA
:1049B000FFFFFFFFFFFFFFFFFFFFFFFFFFFFFFFF07
:1049C000FFFFFFFFFFFFFFFFFFFFFFFFFFFFFFFFF7
:1049D000FFFFFFFFFFFFFFFFFFFFFFFFFFFFFFFFE7
:1049E000FFFFFFFFFFFFFFFFFFFFFFFFFFFFFFFFD7
:1049F000FFFFFFFFFFFFFFFFFFFFFFFFFFFFFFFFC7
:104A0000FFFFFFFFFFFFFFFFFFFFFFFFFFFFFFFFB6
:104A1000FFFFFFFFFFFFFFFFFFFFFFFFFFFFFFFFA6
:104A2000FFFFFFFFFFFFFFFFFFFFFFFFFFFFFFFF96
:104A3000FFFFFFFFFFFFFFFFFFFFFFFFFFFFFFFF86
:104A4000FFFFFFFFFFFFFFFFFFFFFFFFFFFFFFFF76
:104A5000FFFFFFFFFFFFFFFFFFFFFFFFFFFFFFFF66
:104A6000FFFFFFFFFFFFFFFFFFFFFFFFFFFFFFFF56
:104A7000FFFFFFFFFFFFFFFFFFFFFFFFFFFFFFFF46
:104A8000FFFFFFFFFFFFFFFFFFFFFFFFFFFFFFFF36
:104A9000FFFFFFFFFFFFFFFFFFFFFFFFFFFFFFFF26
:104AA000FFFFFFFFFFFFFFFFFFFFFFFFFFFFFFFF16
:104AB000FFFFFFFFFFFFFFFFFFFFBDFF20F800F834
:104AC00000F800F800F800F800F800F800F800F826
:104AD00000F820F87CFFDFFFFFF7FFFFFFFFFFFF7D
:104AE000FFFFFFFFFFFFFFFFFFFFFFFFFFFFFFFFD6
:104AF000FFFFFFFFFFFFFFFFFFFFFFFFFFFFFFFFC6
:104B0000FFFFFFFFFFFFFFFFFFFFFFFFFFFFFFFFB5
:104B1000FFFFFFFFFFFFFFFFFFFFFFFFFFFFFFFFA5
:104B2000FFFFFFFFFFFFFFFFFFFFFFFFFFFFFFFF95
:104B3000FFFFFFFFFFFFFFFFFFFFFFFFFFFFFFFF85
:104B4000FFFFFFFFFFFFFFFFFFFFFFFFFFFFFFFF75
:104B5000FFFFFFFFFFFFFFFFFFFFFFFFFFFFFFFF65
:104B6000FFFFFFFFFFFFFFFFFFFFFFFFFFFFFFFF55
:104B7000FFFFFFFFFFFFFFFFFFFFFFFFFFFFFFFF45
:104B8000FFFFFFFFFFFFFFFFFFFFFFFFFFFFFFFF35
:104B9000FFFFFFFFFFFFFFFFFFFFFFFFFFFFFFFF25
:104BA000FFFFFFFFFFFFFFFFFFFFFFFFFFFFFFFF15
:104BB000FFFFFFFFFFFFFFFFFFFFFFFFFFFFFFFF05
:104BC000FFFFFFFFFFFFFFFFFFFFFFFFFFFFFFFFF5
:104BD000FFFFFFFFFFFFFFFFFFFFFFFFFFFFFFFFE5
:104BE000FFFFFFFFFFFFDEFF20F800F800F800F8EE
:104BF00000F800F800F800F800F800F800F800F8F5
:104C000042E8DFFFFFFFFFFFFFFFFFFFFFFFFFFFA8
:104C1000FFFFFFFFFFFFFFFFFFFFFFFFFFFFFFFFA4
:104C2000FFFFFFFFFFFFFFFFFFFFFFFFFFFFFFFF94
:104C3000FFFFFFFFFFFFFFFFFFFFFFFFFFFFFFFF84
:104C4000FFFFFFFFFFFFFFFFFFFFFFFFFFFFFFFF74
:104C5000FFFFFFFFFFFFFFFFFFFFFFFFFFFFFFFF64
:104C6000FFFFFFFFFFFFFFFFFFFFFFFFFFFFFFFF54
:104C7000FFFFFFFFFFFFFFFFFFFFFFFFFFFFFFFF44
:104C8000FFFFFFFFFFFFFFFFFFFFFFFFFFFFFFFF34
:104C9000FFFFFFFFFFFFFFFFFFFFFFFFFFFFFFFF24
:104CA000FFFFFFFFFFFFFFFFFFFFFFFFFFFFFFFF14
:104CB000FFFFFFFFFFFFFFFFFFFFFFFFFFFFFFFF04
:104CC000FFFFFFFFFFFFFFFFFFFFFFFFFFFFFFFFF4
:104CD000FFFFFFFFFFFFFFFFFFFFFFFFFFFFFFFFE4
:104CE000FFFFFFFFFFFFFFFFFFFFFFFFFFFFFFFFD4
:104CF000FFFFFFFFFFFFFFFFFFFFFFFFFFFFFFFFC4
:104D0000FFFFFFFFFFFFFFFFFFFFFFFFFFFFFFFFB3
:104D1000FFFFDFFF20F800F800F800F800F800F8C7
:104D200000F800F800F800F800F800F800F8D5FDE9
:104D3000BFFFFFFFFFFFFFFFFFFFFFFFFFFFFFFFC3
:104D4000FFFFFFFFFFFFFFFFFFFFFFFFFFFFFFFF73
:104D5000FFFFFFFFFFFFFFFFFFFFFFFFFFFFFFFF63
:104D6000FFFFFFFFFFFFFFFFFFFFFFFFFFFFFFFF53
:104D7000FFFFFFFFFFFFFFFFFFFFFFFFFFFFFFFF43
:104D8000FFFFFFFFFFFFFFFFFFFFFFFFFFFFFFFF33
:104D9000FFFFFFFFFFFFFFFFFFFFFFFFFFFFFFFF23
:104DA000FFFFFFFFFFFFFFFFFFFFFFFFFFFFFFFF13
:104DB000FFFFFFFFFFFFFFFFFFFFFFFFFFFFFFFF03
:104DC000FFFFFFFFFFFFFFFFFFFFFFFFFFFFFFFFF3
:104DD000FFFFFFFFFFFFFFFFFFFFFFFFFFFFFFFFE3
:104DE000FFFFFFFFFFFFFFFFFFFFFFFFFFFFFFFFD3
:104DF000FFFFFFFFFFFFFFFFFFFFFFFFFFFFFFFFC3
:104E0000FFFFFFFFFFFFFFFFFFFFFFFFFFFFFFFFB2
:104E1000FFFFFFFFFFFFFFFFFFFFFFFFFFFFFFFFA2
:104E2000FFFFFFFFFFFFFFFFFFFFFFFFFFFFFFFF92
:104E3000FFFFFFFFFFFFFFFFFFFFFFFFFFFFFFFF82
:104E400020F000F800F800F800F800F800F800F88A
:104E500000F800F800F800F800F840F0BEFFFFFF8F
:104E6000FFFFFFFFFFFFFFFFFFFFFFFFFFFFFFFF52
:104E7000FFFFFFFFFFFFFFFFFFFFFFFFFFFFFFFF42
:104E8000FFFFFFFFFFFFFFFFFFFFFFFFFFFFFFFF32
:104E9000FFFFFFFFFFFFFFFFFFFFFFFFFFFFFFFF22
:104EA000FFFFFFFFFFFFFFFFFFFFFFFFFFFFFFFF12
:104EB000FFFFFFFFFFFFFFFFFFFFFFFFFFFFFFFF02
:104EC000FFFFFFFFFFFFFFFFFFFFFFFFFFFFFFFFF2
:104ED000FFFFFFFFFFFFFFFFFFFFFFFFFFFFFFFFE2
:104EE000FFFFFFFFFFFFFFFFFFFFFFFFFFFFFFFFD2
:104EF000FFFFFFFFFFFFFFFFFFFFFFFFFFFFFFFFC2
:104F0000FFFFFFFFFFFFFFFFFFFFFFFFFFFFFFFFB1
:104F1000FFFFFFFFFFFFFFFFFFFFFFFFFFFFFFFFA1
:104F2000FFFFFFFFFFFFFFFFFFFFFFFFFFFFFFFF91
:104F3000FFFFFFFFFFFFFFFFFFFFFFFFFFFFFFFF81
:104F4000FFFFFFFFFFFFFFFFFFFFFFFFFFFFFFFF71
:104F5000FFFFFFFFFFFFFFFFFFFFFFFFFFFFFFFF61
:104F6000FFFFFFFFFFFFFFFFFFFFFFFF21F800F83C
:104F700000F800F800F800F800F800F800F800F871
:104F800000F800F820F800F030ECFFFFFFFFFFFF13
:104F9000FFFFFFFFFFFFFFFFFFFFFFFFFFFFFFFF21
:104FA000FFFFFFFFFFFFFFFFFFFFFFFFFFFFFFFF11
:104FB000FFFFFFFFFFFFFFFFFFFFFFFFFFFFFFFF01
:104FC000FFFFFFFFFFFFFFFFFFFFFFFFFFFFFFFFF1
:104FD000FFFFFFFFFFFFFFFFFFFFFFFFFFFFFFFFE1
:104FE000FFFFFFFFFFFFFFFFFFFFFFFFFFFFFFFFD1
:104FF000FFFFFFFFFFFFFFFFFFFFFFFFFFFFFFFFC1
:10500000FFFFFFFFFFFFFFFFFFFFFFFFFFFFFFFFB0
:10501000FFFFFFFFFFFFFFFFFFFFFFFFFFFFFFFFA0
:10502000FFFFFFFFFFFFFFFFFFFFFFFFFFFFFFFF90
:10503000FFFFFFFFFFFFFFFFFFFFFFFFFFFFFFFF80
:10504000FFFFFFFFFFFFFFFFFFFFFFFFFFFFFFFF70
:10505000FFFFFFFFFFFFFFFFFFFFFFFFFFFFFFFF60
:10506000FFFFFFFFFFFFFFFFFFFFFFFFFFFFFFFF50
:10507000FFFFFFFFFFFFFFFFFFFFFFFFFFFFFFFF40
:10508000FFFFFFFFFFFFFFFFFFFFFFFFFFFFFFFF30
:10509000FFFFFFFFFFFFFFFF22F000F800F800F81E
:1050A00000F800F800F800F800F800F800F800F840
:1050B00000F800F840F0BEEFFFFFFFFFFFFFFFFF2B
:1050C000FFFFFFFFFFFFFFFFFFFFFFFFFFFFFFFFF0
:1050D000FFFFFFFFFFFFFFFFFFFFFFFFFFFFFFFFE0
:1050E000FFFFFFFFFFFFFFFFFFFFFFFFFFFFFFFFD0
:1050F000FFFFFFFFFFFFFFFFFFFFFFFFFFFFFFFFC0
:10510000FFFFFFFFFFFFFFFFFFFFFFFFFFFFFFFFAF
:10511000FFFFFFFFFFFFFFFFFFFFFFFFFFFFFFFF9F
:10512000FFFFFFFFFFFFFFFFFFFFFFFFFFFFFFFF8F
:10513000FFFFFFFFFFFFFFFFFFFFFFFFFFFFFFFF7F
:10514000FFFFFFFFFFFFFFFFFFFFFFFFFFFFFFFF6F
:10515000FFFFFFFFFFFFFFFFFFFFFFFFFFFFFFFF5F
:10516000FFFFFFFFFFFFFFFFFFFFFFFFFFFFFFFF4F
:10517000FFFFFFFFFFFFFFFFFFFFFFFFFFFFFFFF3F
:10518000FFFFFFFFFFFFFFFFFFFFFFFFFFFFFFFF2F
:10519000FFFFFFFFFFFFFFFFFFFFFFFFFFFFFFFF1F
:1051A000FFFFFFFFB2ACDFF7FFFFFFFFFFFFFFFFD7
:1051B000FFFFFFFFFFFFFFFFFFFFFFFFFFFFFFFFFF
:1051C000FFFFFFFF21F000F800F800F800F800F8FA
:1051D00000F800F800F800F800F800F800F800F80F
:1051E00000F8B1ECDFFFFFFFFFFFFFFFFFFFFFFF56
:1051F000FFFFFFFFFFFFFFFFFFFFFFFFFFFFFFFFBF
:10520000FFFFFFFFFFFFFFFFFFFFFFFFFFFFFFFFAE
:10521000FFFFFFFFFFFFFFFFFFFFFFFFFFFFFFFF9E
:10522000FFFFFFFFFFFFFFFFFFFFFFFFFFFFFFFF8E
:10523000FFFFFFFFFFFFFFFFFFFFFFFFFFFFFFFF7E
:10524000FFFFFFFFFFFFFFFFFFFFFFFFFFFFFFFF6E
:10525000FFFFFFFFFFFFFFFFFFFFFFFFFFFFFFFF5E
:10526000FFFFFFFFFFFFFFFFFFFFFFFFFFFFFFFF4E
:10527000FFFFFFFFFFFFFFFFFFFFFFFFFFFFFFFF3E
:10528000FFFFFFFFFFFFFFFFFFFFFFFFFFFFFFFF2E
:10529000FFFFFFFFFFFFFFFFFFFFFFFFFFFFFFFF1E
:1052A000FFFFFFFFFFFFFFFFFFFFFFFFFFFFFFFF0E
:1052B000FFFFFFFFFFFFFFFFFFFFFFFFFFFFFFFFFE
:1052C000FFFFFFFFFFFFFFFFFFFFFFFFFFFFCAD250
:1052D000FBFEFFFFFFFFFFFFFFFFFFFFFFFFFFFFE3
:1052E000FFFFFFFFFFFFFFFFFFFFFFFFFFFFFFFFCE
:1052F00021E800F800F800F800F800F800F800F8DD
:1053000000F800F800F800F800F800F800F861E094
:10531000FFF7FFFFFFFFFFFFFFFFFFFFFFFFFFFFA5
:10532000FFFFFFFFFFFFFFFFFFFFFFFFFFFFFFFF8D
:10533000FFFFFFFFFFFFFFFFFFFFFFFFFFFFFFFF7D
:10534000FFFFFFFFFFFFFFFFFFFFFFFFFFFFFFFF6D
:10535000FFFFFFFFFFFFFFFFFFFFFFFFFFFFFFFF5D
:10536000FFFFFFFFFFFFFFFFFFFFFFFFFFFFFFFF4D
:10537000FFFFFFFFFFFFFFFFFFFFFFFFFFFFFFFF3D
:10538000FFFFFFFFFFFFFFFFFFFFFFFFFFFFFFFF2D
:10539000FFFFFFFFFFFFFFFFFFFFFFFFFFFFFFFF1D
:1053A000FFFFFFFFFFFFFFFFFFFFFFFFFFFFFFFF0D
:1053B000FFFFFFFFFFFFFFFFFFFFFFFFFFFFFFFFFD
:1053C000FFFFFFFFFFFFFFFFFFFFFFFFFFFFFFFFED
:1053D000FFFFFFFFFFFFFFFFFFFFFFFFFFFFFFFFDD
:1053E000FFFFFFFFFFFFFFFFFFFFFFFFFFFFFFFFCD
:1053F000FFFFFFFFFFFFFFFF0CDB80F0DEFFFFFF83
:10540000FFFFFFFFFFFFFFFFFFFFFFFFFFFFFFFFAC
:10541000FFFFFFFFFFFFFFFFFFFFFFFF42E800F876
:1054200000F800F800F800F800F800F800F800F8BC
:1054300000F800F800F800F800F800F838FEFFFF68
:10544000FFFFFFFFFFFFFFFFFFFFFFFFFFFFFFFF6C
:10545000FFFFFFFFFFFFFFFFFFFFFFFFFFFFFFFF5C
:10546000FFFFFFFFFFFFFFFFFFFFFFFFFFFFFFFF4C
:10547000FFFFFFFFFFFFFFFFFFFFFFFFFFFFFFFF3C
:10548000FFFFFFFFFFFFFFFFFFFFFFFFFFFFFFFF2C
:10549000FFFFFFFFFFFFFFFFFFFFFFFFFFFFFFFF1C
:1054A000FFFFFFFFFFFFFFFFFFFFFFFFFFFFFFFF0C
:1054B000FFFFFFFFFFFFFFFFFFFFFFFFFFFFFFFFFC
:1054C000FFFFFFFFFFFFFFFFFFFFFFFFFFFFFFFFEC
:1054D000FFFFFFFFFFFFFFFFFFFFFFFFFFFFFFFFDC
:1054E000FFFFFFFFFFFFFFFFFFFFFFFFFFFFFFFFCC
:1054F000FFFFFFFFFFFFFFFFFFFFFFFFFFFFFFFFBC
:10550000FFFFFFFFFFFFFFFFFFFFFFFFFFFFFFFFAB
:10551000FFFFFFFFFFFFFFFFFFFFFFFFFFFFFFFF9B
:10552000FFFF33F500F021F8DEFFFFFFFFFFFFFF75
:10553000FFFFFFFFFFFFFFFFFFFFFFFFFFFFFFFF7B
:10554000FFFFFFFFFFFFFFFF41E000F800F800F85A
:1055500000F800F800F800F800F800F800F800F88B
:1055600000F800F800F800F883E0FFF7FFFFFFFF06
:10557000FFFFFFFFFFFFFFFFFFFFFFFFFFFFFFFF3B
:10558000FFFFFFFFFFFFFFFFFFFFFFFFFFFFFFFF2B
:10559000FFFFFFFFFFFFFFFFFFFFFFFFFFFFFFFF1B
:1055A000FFFFFFFFFFFFFFFFFFFFFFFFFFFFFFFF0B
:1055B000FFFFFFFFFFFFFFFFFFFFFFFFFFFFFFFFFB
:1055C000FFFFFFFFFFFFFFFFFFFFFFFFFFFFFFFFEB
:1055D000FFFFFFFFFFFFFFFFFFFFFFFFFFFFFFFFDB
:1055E000FFFFFFFFFFFFFFFFFFFFFFFFFFFFFFFFCB
:1055F000FFFFFFFFFFFFFFFFFFFFFFFFFFFFFFFFBB
:10560000FFFFFFFFFFFFFFFFFFFFFFFFFFFFFFFFAA
:10561000FFFFFFFFFFFFFFFFFFFFFFFFFFFFFFFF9A
:10562000FFFFFFFFFFFFFFFFFFFFFFFFFFFFFFFF8A
:10563000FFFFFFFFFFFFFFFFFFFFFFFFFFFFFFFF7A
:10564000FFFFFFFFFFFFFFFFFFFFFFFF1BFF00F05C
:1056500020F021F0FFFFFFFFFFFFFFFFFFFFFFFF35
:10566000FFFFFFFFFFFFFFFFFFFFFFFFFFFFFFFF4A
:10567000FFFFFFFF21E800F800F800F800F800F84D
:1056800000F800F800F800F800F800F800F800F85A
:1056900000F800F820F85CFFFFFFFFFFFFFFFFFFAF
:1056A000FFFFFFFFFFFFFFFFFFFFFFFFFFFFFFFF0A
:1056B000FFFFFFFFFFFFFFFFFFFFFFFFFFFFFFFFFA
:1056C000FFFFFFFFFFFFFFFFFFFFFFFFFFFFFFFFEA
:1056D000FFFFFFFFFFFFFFFFFFFFFFFFFFFFFFFFDA
:1056E000FFFFFFFFFFFFFFFFFFFFFFFFFFFFFFFFCA
:1056F000FFFFFFFFFFFFFFFFFFFFFFFFFFFFFFFFBA
:10570000FFFFFFFFFFFFFFFFFFFFFFFFFFFFFFFFA9
:10571000FFFFFFFFFFFFFFFFFFFFFFFFFFFFFFFF99
:10572000FFFFFFFFFFFFFFFFFFFFFFFFFFFFFFFF89
:10573000FFFFFFFFFFFFFFFFFFFFFFFFFFFFFFFF79
:10574000FFFFFFFFFFFFFFFFFFFFFFFFFFFFFFFF69
:10575000FFFFFFFFFFFFFFFFFFFFFFFFFFFFFFFF59
:10576000FFFFFFFFFFFFFFFFFFFFFFFFFFFFFFFF49
:10577000FFFFFFFFFFFFBDFF22F000F800F8E4D8B5
:10578000FFFFFFFFFFFFFFFFFFFFFFFFFFFFFFFF29
:10579000FFFFFFFFFFFFFFFFFFFFFFFFFFFFFFFF19
:1057A00042E800F800F800F800F800F800F800F807
:1057B00000F800F800F800F800F800F800F800F829
:1057C00000F8C7C9FFFFFFFFFFFFFFFFFFFFFFFF5D
:1057D000FFFFFFFFFFFFFFFFFFFFFFFFFFFFFFFFD9
:1057E000FFFFFFFFFFFFFFFFFFFFFFFFFFFFFFFFC9
:1057F000FFFFFFFFFFFFFFFFFFFFFFFFFFFFFFFFB9
:10580000FFFFFFFFFFFFFFFFFFFFFFFFFFFFFFFFA8
:10581000FFFFFFFFFFFFFFFFFFFFFFFFFFFFFFFF98
:10582000FFFFFFFFFFFFFFFFFFFFFFFFFFFFFFFF88
:10583000FFFFFFFFFFFFFFFFFFFFFFFFFFFFFFFF78
:10584000FFFFFFFFFFFFFFFFFFFFFFFFFFFFFFFF68
:10585000FFFFFFFFFFFFFFFFFFFFFFFFFFFFFFFF58
:10586000FFFFFFFFFFFFFFFFFFFFFFFFFFFFFFFF48
:10587000FFFFFFFFFFFFFFFFFFFFFFFFFFFFFFFF38
:10588000FFFFFFFFFFFFFFFFFFFFFFFFFFFFFFFF28
:10589000FFFFFFFFFFFFFFFFFFFFFFFFFFFFDEFF39
:1058A000FFF7A3D820F800F801F8ABDAFFFFFFFFFD
:1058B000FFFFFFFFFFFFFFFFFFFFFFFFFFFFFFFFF8
:1058C000FFFFFFFFFFFFFFFFFFFFFFFF21F000F8DB
:1058D00000F800F800F800F800F800F800F800F808
:1058E00000F800F800F800F800F800F800F841F0BF
:1058F000DEF7DFFFFFFFFFFFFFFFFFFFFFFFFFFF01
:10590000FFFFFFFFFFFFFFFFFFFFFFFFFFFFFFFFA7
:10591000FFFFFFFFFFFFFFFFFFFFFFFFFFFFFFFF97
:10592000FFFFFFFFFFFFFFFFFFFFFFFFFFFFFFFF87
:10593000FFFFFFFFFFFFFFFFFFFFFFFFFFFFFFFF77
:10594000FFFFFFFFFFFFFFFFFFFFFFFFFFFFFFFF67
:10595000FFFFFFFFFFFFFFFFFFFFFFFFFFFFFFFF57
:10596000FFFFFFFFFFFFFFFFFFFFFFFFFFFFFFFF47
:10597000FFFFFFFFFFFFFFFFFFFFFFFFFFFFFFFF37
:10598000FFFFFFFFFFFFFFFFFFFFFFFFFFFFFFFF27
:10599000FFFFFFFFFFFFFFFFFFFFFFFFFFFFFFFF17
:1059A000FFFFFFFFFFFFFFFFFFFFFFFFFFFFFFFF07
:1059B000FFFFFFFFFFFFFFFFFFFFFFFFFFFFFFFFF7
:1059C000FFFFFFFFFFFFFFFFFFFFDFFFE7C920F83B
:1059D00000F800F820F01AFFFFFFFFFFFFFFFFFFB6
:1059E000FFFFFFFFFFFFFFFFFFFFFFFFFFFFFFFFC7
:1059F000FFFFFFFFFFFFFFFF21F000F800F800F8B6
:105A000000F800F800F800F800F800F800F800F8D6
:105A100000F800F800F800F800F800F07CFFFFFF45
:105A2000FFFFFFFFFFFFFFFFFFFFFFFFFFFFFFFF86
:105A3000FFFFFFFFFFFFFFFFFFFFFFFFFFFFFFFF76
:105A4000FFFFFFFFFFFFFFFFFFFFFFFFFFFFFFFF66
:105A5000FFFFFFFFFFFFFFFFFFFFFFFFFFFFFFFF56
:105A6000FFFFFFFFFFFFFFFFFFFFFFFFFFFFFFFF46
:105A7000FFFFFFFFFFFFFFFFFFFFFFFFFFFFFFFF36
:105A8000FFFFFFFFFFFFFFFFFFFFFFFFFFFFFFFF26
:105A9000FFFFFFFFFFFFFFFFFFFFFFFFFFFFFFFF16
:105AA000FFFFFFFFFFFFFFFFFFFFFFFFFFFFFFFF06
:105AB000FFFFFFFFFFFFFFFFFFFFFFFFFFFFFFFFF6
:105AC000FFFFFFFFFFFFFFFFFFFFFFFFFFFFFFFFE6
:105AD000FFFFFFFFFFFFFFFFFFFFFFFFFFFFFFFFD6
:105AE000FFFFFFFFFFFFFFFFFFFFFFFFFFFFFFFFC6
:105AF000FFFFFFF7DFFF3BFF00F000F800F800F8C2
:105B000000F87EFFFFFFFFFFFFFFFFFFFFFFFFFF2C
:105B1000FFFFFFFFFFFFFFFFFFFFFFFFFFFFFFFF95
:105B2000FFFFFFFF00F000F800F800F800F800F8B1
:105B300000F800F800F800F800F800F800F800F8A5
:105B400000F800F800F800F0E4C8FFFFFFFFFFFFD7
:105B5000FFFFFFFFFFFFFFFFFFFFFFFFFFFFFFFF55
:105B6000FFFFFFFFFFFFFFFFFFFFFFFFFFFFFFFF45
:105B7000FFFFFFFFFFFFFFFFFFFFFFFFFFFFFFFF35
:105B8000FFFFFFFFFFFFFFFFFFFFFFFFFFFFFFFF25
:105B9000FFFFFFFFFFFFFFFFFFFFFFFFFFFFFFFF15
:105BA000FFFFFFFFFFFFFFFFFFFFFFFFFFFFFFFF05
:105BB000FFFFFFFFFFFFFFFFFFFFFFFFFFFFFFFFF5
:105BC000FFFFFFFFFFFFFFFFFFFFFFFFFFFFFFFFE5
:105BD000FFFFFFFFFFFFFFFFFFFFFFFFFFFFFFFFD5
:105BE000FFFFFFFFFFFFFFFFFFFFFFFFFFFFFFFFC5
:105BF000FFFFFFFFFFFFFFFFFFFFFFFFFFFFFFFFB5
:105C0000FFFFFFFFFFFFFFFFFFFFFFFFFFFFFFFFA4
:105C1000FFFFFFFFFFFFFFFFFFFFFFFFFFFFFFF79C
:105C2000DEF721E800F800F800F800F800F8FEF7C9
:105C3000FFFFFFFFFFFFFFFFFFFFFFFFFFFFFFFF74
:105C4000FFFFFFFFFFFFFFFFFFFFFFFFFFFFDFFF84
:105C500000F800F800F800F800F800F800F800F884
:105C600000F800F800F800F800F800F800F800F874
:105C700000F800F861F0BFFFFFFFFFFFFFFFFFFF2D
:105C8000FFFFFFFFFFFFFFFFFFFFFFFFFFFFFFFF24
:105C9000FFFFFFFFFFFFFFFFFFFFFFFFFFFFFFFF14
:105CA000FFFFFFFFFFFFFFFFFFFFFFFFFFFFFFFF04
:105CB000FFFFFFFFFFFFFFFFFFFFFFFFFFFFFFFFF4
:105CC000FFFFFFFFFFFFFFFFFFFFFFFFFFFFFFFFE4
:105CD000FFFFFFFFFFFFFFFFFFFFFFFFFFFFFFFFD4
:105CE000FFFFFFFFFFFFFFFFFFFFFFFFFFFFFFFFC4
:105CF000FFFFFFFFFFFFFFFFFFFFFFFFFFFFFFFFB4
:105D0000FFFFFFFFFFFFFFFFFFFFFFFFFFFFFFFFA3
:105D1000FFFFFFFFFFFFFFFFFFFFFFFFFFFFFFFF93
:105D2000FFFFFFFFFFFFFFFFFFFFFFFFFFFFFFFF83
:105D3000FFFFFFFFFFFFFFFFFFFFFFFFFFFFFFFF73
:105D4000FFFFFFFFFFFFFFFFFFFFDFFF09D200F8AC
:105D500000F800F800F800F820F0DFFFFFFFFFFF79
:105D6000FFFFFFFFFFFFFFFFFFFFFFFFFFFFFFFF43
:105D7000FFFFFFFFFFFFFFFFFFFFDEFF20F800F840
:105D800000F800F800F800F800F800F800F800F853
:105D900000F800F800F800F800F800F800F800F843
:105DA00020F8DEFFFFFFFFFFFFFFFFFFFFFFFFFF0A
:105DB000FFFFFFFFFFFFFFFFFFFFFFFFFFFFFFFFF3
:105DC000FFFFFFFFFFFFFFFFFFFFFFFFFFFFFFFFE3
:105DD000FFFFFFFFFFFFFFFFFFFFFFFFFFFFFFFFD3
:105DE000FFFFFFFFFFFFFFFFFFFFFFFFFFFFFFFFC3
:105DF000FFFFFFFFFFFFFFFFFFFFFFFFFFFFFFFFB3
:105E0000FFFFFFFFFFFFFFFFFFFFFFFFFFFFFFFFA2
:105E1000FFFFFFFFFFFFFFFFFFFFFFFFFFFFFFFF92
:105E2000FFFFFFFFFFFFFFFFFFFFFFFFFFFFFFFF82
:105E3000FFFFFFFFFFFFFFFFFFFFFFFFFFFFFFFF72
:105E4000FFFFFFFFFFFFFFFFFFFFFFFFFFFFFFFF62
:105E5000FFFFFFFFFFFFFFFFFFFFFFFFFFFFFFFF52
:105E6000FFFFFFFFFFFFFFFFFFFFFFFFFFFFFFFF42
:105E7000FFFFFFFFFFFF7CFF20F000F800F800F8B5
:105E800000F800F821E8DFFFFFFFFFFFFFFFFFFF43
:105E9000FFFFFFFFFFFFFFFFFFFFFFFFFFFFFFFF12
:105EA000FFFFFFFFFFFF7CFF20F000F800F800F885
:105EB00000F800F800F800F800F800F800F800F822
:105EC00000F800F800F800F800F800F800F04CEBDB
:105ED000DFF7FFFFFFFFFFFFFFFFFFFFFFFFFFFFFA
:105EE000FFFFFFFFFFFFFFFFFFFFFFFFFFFFFFFFC2
:105EF000FFFFFFFFFFFFFFFFFFFFFFFFFFFFFFFFB2
:105F0000FFFFFFFFFFFFFFFFFFFFFFFFFFFFFFFFA1
:105F1000FFFFFFFFFFFFFFFFFFFFFFFFFFFFFFFF91
:105F2000FFFFFFFFFFFFFFFFFFFFFFFFFFFFFFFF81
:105F3000FFFFFFFFFFFFFFFFFFFFFFFFFFFFFFFF71
:105F4000FFFFFFFFFFFFFFFFFFFFFFFFFFFFFFFF61
:105F5000FFFFFFFFFFFFFFFFFFFFFFFFFFFFFFFF51
:105F6000FFFFFFFFFFFFFFFFFFFFFFFFFFFFFFFF41
:105F7000FFFFFFFFFFFFFFFFFFFFFFFFFFFFFFFF31
:105F8000FFFFFFFFFFFFFFFFFFFFFFFFFFFFFFFF21
:105F9000FFFFFFFFFFFFFFFFFFFFFFFFFFFFFFFF11
:105FA000BFFFC2C040F000F800F800F800F800F8A9
:105FB00062E0DFFFFFFFFFFFFFFFFFFFFFFFFFFFCD
:105FC000FFFFFFFFFFFFFFFFFFFFFFFFFFFFFFFFE1
:105FD000FFFFD5F500F800F800F800F800F800F829
:105FE00000F800F800F800F800F800F800F800F8F1
:105FF00000F800F800F800F800F861E8DFFFFFFFA4
:10600000FFFFFFFFFFFFFFFFFFFFFFFFFFFFFFFFA0
:10601000FFFFFFFFFFFFFFFFFFFFFFFFFFFFFFFF90
:10602000FFFFFFFFFFFFFFFFFFFFFFFFFFFFFFFF80
:10603000FFFFFFFFFFFFFFFFFFFFFFFFFFFFFFFF70
:10604000FFFFFFFFFFFFFFFFFFFFFFFFFFFFFFFF60
:10605000FFFFFFFFFFFFFFFFFFFFFFFFFFFFFFFF50
:10606000FFFFFFFFFFFFFFFFFFFFFFFFFFFFFFFF40
:10607000FFFFFFFFFFFFFFFFFFFFFFFFFFFFFFFF30
:10608000FFFFFFFFFFFFFFFFFFFFFFFFFFFFFFFF20
:10609000FFFFFFFFFFFFFFFFFFFFFFFFFFFFFFFF10
:1060A000FFFFFFFFFFFFFFFFFFFFFFFFFFFFFFFF00
:1060B000FFFFFFFFFFFFFFFFFFFFFFFFFFFFFFFFF0
:1060C000FFFFFFFFFFFFFFFFFFFFFFFF7BFF00F072
:1060D00000F800F800F800F800F800F8E7C9FFFF42
:1060E000FFFFFFFFFFFFFFFFFFFFFFFFFFFFFFFFC0
:1060F000FFFFFFFFFFFFFFFFFFFFFFFFFFFF28DAAC
:1061000000F800F800F800F800F800F800F800F8CF
:1061100000F800F800F800F800F800F800F800F8BF
:1061200000F800F800F821F8FFFFFFFFFFFFFFFF76
:10613000FFFFFFFFFFFFFFFFFFFFFFFFFFFFFFFF6F
:10614000FFFFFFFFFFFFFFFFFFFFFFFFFFFFFFFF5F
:10615000FFFFFFFFFFFFFFFFFFFFFFFFFFFFFFFF4F
:10616000FFFFFFFFFFFFFFFFFFFFFFFFFFFFFFFF3F
:10617000FFFFFFFFFFFFFFFFFFFFFFFFFFFFFFFF2F
:10618000FFFFFFFFFFFFFFFFFFFFFFFFFFFFFFFF1F
:10619000FFFFFFFFFFFFFFFFFFFFFFFFFFFFFFFF0F
:1061A000FFFFFFFFFFFFFFFFFFFFFFFFFFFFFFFFFF
:1061B000FFFFFFFFFFFFFFFFFFFFFFFFFFFFFFFFEF
:1061C000FFFFFFFFFFFFFFFFFFFFFFFFFFFFFFFFDF
:1061D000FFFFFFFFFFFFFFFFFFFFFFFFFFFFFFFFCF
:1061E000FFFFFFFFFFFFFFFFFFFFFFFFFFFFFFFFBF
:1061F000FFFFFFFFFFFFFFF763D800F800F800F88C
:1062000000F800F800F800F8D1ECFFFFFFFFFFFFF7
:10621000FFFFFFFFFFFFFFFFFFFFFFFFFFFFFFFF8E
:10622000FFFFFFFFFFFFFFFFDFFF63E800F800F85D
:1062300000F800F800F800F800F800F800F800F89E
:1062400000F800F800F800F800F800F800F800F88E
:1062500000F820F87DF7FFFFFFFFFFFFFFFFFFFFC4
:10626000FFFFFFFFFFFFFFFFFFFFFFFFFFFFFFFF3E
:10627000FFFFFFFFFFFFFFFFFFFFFFFFFFFFFFFF2E
:10628000FFFFFFFFFFFFFFFFFFFFFFFFFFFFFFFF1E
:10629000FFFFFFFFFFFFFFFFFFFFFFFFFFFFFFFF0E
:1062A000FFFFFFFFFFFFFFFFFFFFFFFFFFFFFFFFFE
:1062B000FFFFFFFFFFFFFFFFFFFFFFFFFFFFFFFFEE
:1062C000FFFFFFFFFFFFFFFFFFFFFFFFFFFFFFFFDE
:1062D000FFFFFFFFFFFFFFFFFFFFFFFFFFFFFFFFCE
:1062E000FFFFFFFFFFFFFFFFFFFFFFFFFFFFFFFFBE
:1062F000FFFFFFFFFFFFFFFFFFFFFFFFFFFFFFFFAE
:10630000FFFFFFFFFFFFFFFFFFFFFFFFFFFFFFFF9D
:10631000FFFFFFFFFFFFFFFFFFFFFFFFFFFFFFFF8D
:10632000FFFFBCFF20F800F800F800F800F800F8C4
:1063300000F800F879FEFFFFFFFFFFFFFFFFFFFF00
:10634000FFFFFFFFFFFFFFFFFFFFFFFFFFFFFFFF5D
:10635000FFFFFFFFFFFF61F040E800F800F800F8E2
:1063600000F800F800F800F800F800F800F800F86D
:1063700000F800F800F800F800F800F800F800F85D
:1063800054FDFFFFFFFFFFFFFFFFFFFFFFFFFFFFCA
:10639000FFFFFFFFFFFFFFFFFFFFFFFFFFFFFFFF0D
:1063A000FFFFFFFFFFFFFFFFFFFFFFFFFFFFFFFFFD
:1063B000FFFFFFFFFFFFFFFFFFFFFFFFFFFFFFFFED
:1063C000FFFFFFFFFFFFFFFFFFFFFFFFFFFFFFFFDD
:1063D000FFFFFFFFFFFFFFFFFFFFFFFFFFFFFFFFCD
:1063E000FFFFFFFFFFFFFFFFFFFFFFFFFFFFFFFFBD
:1063F000FFFFFFFFFFFFFFFFFFFFFFFFFFFFFFFFAD
:10640000FFFFFFFFFFFFFFFFFFFFFFFFFFFFFFFF9C
:10641000FFFFFFFFFFFFFFFFFFFFFFFFFFFFFFFF8C
:10642000FFFFFFFFFFFFFFFFFFFFFFFFFFFFFFFF7C
:10643000FFFFFFFFFFFFFFFFFFFFFFFFFFFFFFFF6C
:10644000FFFFFFFFFFFFFFFFFFFFFFFFDFFF82D820
:1064500020F000F800F800F800F800F800F800F864
:106460007CFFFFFFFFFFFFFFFFFFFFFFFFFFFFFFBF
:10647000FFFFFFFFFFFFFFFFFFFFFFFFFFFFFFFF2C
:10648000FEFF20F000F800F800F800F800F800F82F
:1064900000F800F800F800F800F800F800F800F83C
:1064A00000F800F800F800F800F800F8C3D8FFFF83
:1064B000FFFFFFFFFFFFFFFFFFFFFFFFFFFFFFFFEC
:1064C000FFFFFFFFFFFFFFFFFFFFFFFFFFFFFFFFDC
:1064D000FFFFFFFFFFFFFFFFFFFFFFFFFFFFFFFFCC
:1064E000FFFFFFFFFFFFFFFFFFFFFFFFFFFFFFFFBC
:1064F000FFFFFFFFFFFFFFFFFFFFFFFFFFFFFFFFAC
:10650000FFFFFFFFFFFFFFFFFFFFFFFFFFFFFFFF9B
:10651000FFFFFFFFFFFFFFFFFFFFFFFFFFFFFFFF8B
:10652000FFFFFFFFFFFFFFFFFFFFFFFFFFFFFFFF7B
:10653000FFFFFFFFFFFFFFFFFFFFFFFFFFFFFFFF6B
:10654000FFFFFFFFFFFFFFFFFFFFFFFFFFFFFFFF5B
:10655000FFFFFFFFFFFFFFFFFFFFFFFFFFFFFFFF4B
:10656000FFFFFFFFFFFFFFFFFFFFFFFFFFFFFFFF3B
:10657000FFFFFFFFFFFFDFFFBEFF00F800F800F89E
:1065800000F800F800F800F800F800F89DFFFFFFA1
:10659000FFFFFFFFFFFFFFFFFFFFFFFFFFFFFFFF0B
:1065A000FFFFFFFFFFFFFFFFFFFFFFFFD9FE40F0F0
:1065B00000F800F800F800F800F800F800F800F81B
:1065C00000F800F800F800F800F800F800F800F80B
:1065D00000F800F800F800F822F0DFFFFFFFFFFFEF
:1065E000FFFFFFFFFFFFFFFFFFFFFFFFFFFFDFFFDB
:1065F000DFFFFFFFFFFFFFFFFFFFFFFFFFFFFFFFCB
:10660000FFFFFFFFFFFFFFFFFFFFFFFFFFFFFFFF9A
:10661000FFFFFFFFFFFFFFFFFFFFFFFFFFFFFFFF8A
:10662000FFFFFFFFFFFFFFFFFFFFFFFFFFFFFFFF7A
:10663000FFFFFFFFFFFFFFFFFFFFFFFFFFFFFFFF6A
:10664000FFFFFFFFFFFFFFFFFFFFFFFFFFFFFFFF5A
:10665000FFFFFFFFFFFFFFFFFFFFFFFFFFFFFFFF4A
:10666000FFFFFFFFFFFFFFFFFFFFFFFFFFFFFFFF3A
:10667000FFFFFFFFFFFFFFFFFFFFFFFFFFFFFFFF2A
:10668000FFFFFFFFFFFFFFFFFFFFFFFFFFFFFFFF1A
:10669000FFFFFFFFFFFFFFFFFFFFFFFFFFFFFFFF0A
:1066A000FFFFFFFFE5C820F000F800F800F800F851
:1066B00000F800F800F800F8DEFFFFFFFFFFFFFF23
:1066C000FFFFFFFFFFFFFFFFFFFFFFFFFFFFFFFFDA
:1066D000FFFFFFFFFFFFDFFFC8D920F800F800F839
:1066E00000F800F800F800F800F800F800F800F8EA
:1066F00000F800F800F800F800F800F800F800F8DA
:1067000000F800F800F8FFFFFFFFFFFFFFFFFFFFAB
:10671000FFFFFFFFFFFFFFFFFFFFFFFFBEF7DFFFF2
:10672000FFFFFFFFFFFFFFFFFFFFFFFFFFFFFFFF79
:10673000FFFFFFFFFFFFFFFFFFFFFFFFFFFFFFFF69
:10674000FFFFFFFFFFFFFFFFFFFFFFFFFFFFFFFF59
:10675000FFFFFFFFFFFFFFFFFFFFFFFFFFFFFFFF49
:10676000FFFFFFFFFFFFFFFFFFFFFFFFFFFFFFFF39
:10677000FFFFFFFFFFFFFFFFFFFFFFFFFFFFFFFF29
:10678000FFFFFFFFFFFFFFFFFFFFFFFFFFFFFFFF19
:10679000FFFFFFFFFFFFFFFFFFFFFFFFFFFFFFFF09
:1067A000FFFFFFFFFFFFFFFFFFFFFFFFFFFFFFFFF9
:1067B000FFFFFFFFFFFFFFFFFFFFFFFFFFFFFFFFE9
:1067C000FFFFFFFFFFFFFFFFFFFFFFFFFEFFFFFFDA
:1067D00000F800F800F800F800F800F800F800F8F9
:1067E00000F800F8FFFFFFFFFFFFFFFFFFFFFFFFC5
:1067F000FFFFFFFFFFFFFFFFFFFFFFFFFFFFFFFFA9
:10680000FFFFDFFF20F000F800F800F800F800F8C4
:1068100000F800F800F800F800F800F800F800F8B8
:1068200000F800F800F800F800F800F800F800F8A8
:1068300000F0DEFFFFFFFFFFFFFFFFFFFFFFFFFF97
:10684000FFFFFFFFFFFFFFFFFFFF2BE3FFF7FFFF50
:10685000FFFFFFFFFFFFFFFFFFFFFFFFFFFFFFFF48
:10686000FFFFFFFFFFFFFFFFFFFFFFFFFFFFFFFF38
:10687000FFFFFFFFFFFFFFFFFFFFFFFFFFFFFFFF28
:10688000FFFFFFFFFFFFFFFFFFFFFFFFFFFFFFFF18
:10689000FFFFFFFFFFFFFFFFFFFFFFFFFFFFFFFF08
:1068A000FFFFFFFFFFFFFFFFFFFFFFFFFFFFFFFFF8
:1068B000FFFFFFFFFFFFFFFFFFFFFFFFFFFFFFFFE8
:1068C000FFFFFFFFFFFFFFFFFFFFFFFFFFFFFFFFD8
:1068D000FFFFFFFFFFFFFFFFFFFFFFFFFFFFFFFFC8
:1068E000FFFFFFFFFFFFFFFFFFFFFFFFFFFFFFFFB8
:1068F000FFFFFFFFFFFFFFFFDFF716F600F000F8D6
:1069000000F800F800F800F800F800F800F821F8A6
:10691000DFFFFFFFFFFFFFFFFFFFFFFFFFFFFFFFA7
